:04000000A031002803
:1000080070084001A5007108A4007208A3007308D5
:10001800A20080314E018C1E80288C1201304101D3
:10002800CC070030CD3DCE3DCF3DC03040019C00D7
:10003800E0309D0041014B084F02031D2D284A085E
:100048004E02031D2D2849084D02031D2D2848087E
:100058004C02031C80280A30C8070030C93DCA3D3D
:10006800CB3D40010D193A2803143B280310031C0B
:1000780051284001B430470203184328C70A4708EB
:10008800193A031D49284101E61440014708B43ACA
:10009800031D502842016414682840014708023CA7
:1000A800013003180030F1001930470201300318FD
:1000B8000030F0007108F005031967284101661443
:1000C8004001C7016828C7010530410147020318EC
:1000D8006F28C70A71280130C70047086502031C4A
:1000E80078280130F2007928F20172187E28400140
:1000F80098138028400198177E01D51E9428420144
:10010800E41D8828F3018D28003040018E1A013043
:10011800F300731892284001181294284001181609
:100128007E01BF01CA01D501EB0140012508F0009D
:0E0138002408F1002308F2002208F300090059
:10014600F101083071020318C0284301E51BAE28EF
:1001560040011611B028400116151A30FD00FD0B9E
:10016600B228000096151A30FD00FD0BB8280000D5
:1001760096114301E535F10AA428400116151A30F7
:10018600FD00FD0BC4280000961500300C19013047
:10019600F2001A30FD00FD0BCE28000096111A3031
:0E01A600FD00FD0BD42800007208F0000800D8
:1001B400400196151A30FD00FD0BDE2800001615CF
:1001C4001A30FD00FD0BE428000016111A30FD0062
:1001D400FD0BEA28000096111A30FD00FD0BF028F3
:0401E400000008000F
:1001E800400116111A30FD00FD0BF8280000961585
:1001F8001A30FD00FD0BFE28000016151A30FD0010
:08020800FD0B042900000800B1
:1002100040016F0843016107E400DA204101420810
:100220004301E500A3204301E501A3204301600849
:10023000B03EE500A320430164080F3C031C2429C1
:100240006408E200E30135296408F200F236F23670
:10025000F236F2367208E3007208F000F035F0353D
:10026000F035F03570086402E2006208E500A32072
:1002700043016308103EE500A320DA204101420853
:100280004301E500A32040304301E500A32008001E
:1002900040017008F100F0010830FC007108F40C16
:1002A00003185629FC0B4F29F101003403105B2978
:1002B000F40C0318F107F10CF00CFC0B58290800A2
:1002C0004001F8010830FC00700DF80D7408F802C8
:1002D00003186C29F8070310F00DFC0B64290800C3
:1002E000DA20410142084301E500A32080304301A8
:1002F000E500A32043015808E500A320F4200800EE
:1003000043015808E0005908E10008214301DD01DC
:100310005C085D020318BB295D085A0784000030A1
:100320005B3D850020300002DF00DE0105305E020B
:100330000318B6295F08F0000530F4004821430196
:100340005E08F0070030F13DAA3070078400A2304B
:10035000713D85000008F1007108E500E535E535DF
:10036000E535E535A3204301DE0A9629E501A32002
:100370004301DD0A8829F4204301580AE0005908A6
:10038000E10008214301DD015C085D020318F72943
:100390005D085A07840000305B3D85002030000274
:1003A000DF00DE0105305E020318F2295F08F0006D
:1003B0000530F400482143015E08F0070030F13DAC
:1003C000AA3070078400A230713D85000008F1005A
:1003D0007108E500E536E536E536E536A32043014C
:1003E000DE0AD229E501A3204301DD0AC429F42055
:0203F000080003
:1003F2004301DB0103305B020318092A5B0859073A
:10040200860000305A3D870020308100DB0AFB293C
:100412005B085907860000305A3D87008101DB03E3
:100422005B085907DC0000305A3DDD000A30F40059
:100432005808F00060217808F0003030F0074301DE
:100442005C0886005D088700700881000A30F400AD
:100452005808F000602170084301D8007008003A83
:0C046200031D342A362ADB03112A08008F
:10046E0043015808E000E10108214301D901803021
:10047E0059020318472AE501A3204301D90A3E2A4F
:04048E00F42008004E
:1004920043015808E0005908E10008214301DD0149
:1004A2005C085D0203187E2A5D085A07840000304A
:1004B2005B3D850020300002DF00DE0105305E0278
:1004C2000318792A5F08F0000530F400482143013F
:1004D2005E08F0070030F13DAA3070078400A230B8
:1004E200713D85000008E500A3204301DE0A5F2A72
:0E04F200E501A3204301DD0A512AF420080091
:0E0500008B1355309F00AA309F009E140800F8
:10050E00420163084301D800E730D9000030DA0019
:10051E00F9212E304101EA0001304301D80011309B
:10052E00D900E730DA000030DB000430DC00802137
:10053E00420162084301D800E730D9000030DA00EA
:10054E00F9212E304101EA0001304301D8002A3052
:10055E00D900E730DA000030DB000430DC00802107
:10056E00420161084301D800E730D9000030DA00BB
:10057E00F9212E304101EA0001304301D800433009
:10058E00D900E730DA000030DB000430DC008021D7
:10059E00420160084301D800E730D9000030DA008C
:1005AE00F9210130D8005C30D900E730DA00003094
:0A05BE00DB000330DC0080210800A0
:1005C80003304301D8002D30D9004230DA00003022
:1005D800DB000430DC004922420165084301D800F1
:1005E800E730D9000030DA00F92141016908E70055
:1005F80003304301D8005030D900E730DA0000302A
:0A060800DB000130DC00492208008D
:1006120043014E08E0004F08E10008214301D301E5
:10062200520853020318A02B5308500784000030CD
:10063200513D85000008003A031D212BD5012A2BCC
:100642005308500784000030513D850020300002DD
:10065200D500D4015408043C031C982B5508F00023
:100662000530F400482143015408F0070030F13D01
:10067200AA3070078400A230713D85000008D600C0
:100682004E08023A03196E2BD619492BD7134A2B5F
:10069200D717D6194E2B57134F2B57175619532BC3
:1006A200D712542BD7165619582B5712592B5716A7
:1006B200D6185D2BD7115E2BD715D618622B571182
:1006C200632B57155618672BD710682BD71456185B
:1006D2006C2B57106D2B57148E2B5619722BD71368
:1006E200732BD7175619772B5713782B5717D61802
:1006F2007C2BD7127D2BD716D618812B5712822B23
:1007020057165618862BD711872BD71556188B2BB1
:1007120057118C2B5715D71057105708E500A320F7
:1007220043015708E500A3204301D40A2B2BE5011E
:10073200A3204301E501A3204301D30A112B4E0A52
:10074200E0004F08E10008214301D301520853029F
:1007520003183E2C5308500784000030513D850099
:100762000008003A031DB72BD501C02B53085007D0
:1007720084000030513D850020300002D500D401B4
:100782005408043C031C362C5508F0000530F400D4
:10079200482143015408F0070030F13DAA307007A8
:1007A2008400A230713D85000008D6004E08023A4E
:1007B2000319042CD61BDF2BD713E02BD717D61B1C
:1007C200E42B5713E52B5717561BE92BD712EA2BAD
:1007D200D716561BEE2B5712EF2B5716D61AF32BA2
:1007E200D711F42BD715D61AF82B5711F92B571509
:1007F200561AFD2BD710FE2BD714561A022C57105F
:10080200032C57142C2C561B082CD713092CD71742
:10081200561B0D2C57130E2C5717D61A122CD71203
:10082200132CD716D61A172C5712182C5716561ADD
:100832001C2CD7111D2CD715561A212C5711222CDE
:100842005715D619262CD710272CD714D6192B2C8E
:1008520057102C2C57145708E500A32043015708C2
:10086200E500A3204301D40AC12BE501A3204301E3
:0E087200E501A3204301D30AA72BF4200800C0
:10088000DA20410142084301E500A3204030430142
:10089000E500A32001304301E0000E30E100082113
:1008A0004301CF0164304F020318C32CA62CC03083
:1008B000E500A320C02C43014E084F020318642C0E
:1008C000F030E500A320682C30304301E500A32080
:1008D000C02C43014E084F020318722CF830E5007B
:1008E000A320762C08304301E500A320C02C43014F
:1008F0004E084F020318802CF830E500A320842C0A
:1009000008304301E500A320C02C43014E084F02EC
:1009100003188E2CF030E500A320922C30304301D8
:10092000E500A320C02CC0304301E500A320C02C6B
:1009300043014E084F020318A12CFC30E500A32010
:10094000A52C04304301E500A320C02C43014F082F
:10095000003A0319572C4F08013A03195B2C4F0832
:10096000023A0319692C4F08613A0319772C4F0892
:10097000623A0319852C4F08633A0319932C982C7B
:100980004301CF0A522CF420410142084301E50003
:10099000A32040304301E500A32002304301E000E2
:1009A0000E30E10008214301CF0164304F020318EB
:1009B000462D292D0330E500A320432D43014E0889
:1009C0004F020318E72C0F30E500A320EB2C0C306E
:1009D0004301E500A320432D43014E084F020318B5
:1009E000F52C1F30E500A320F92C10304301E50061
:1009F000A320432D43014E084F020318032D1F303F
:100A0000E500A320072D10304301E500A320432D6E
:100A100043014E084F020318112D0F30E500A320AB
:100A2000152D0C304301E500A320432D0330430175
:100A3000E500A320432D43014E084F020318242D47
:100A40003F30E500A320282D20304301E500A320FE
:100A5000432D43014F08003A0319DA2C4F08013A9D
:100A60000319DE2C4F08023A0319EC2C4F08613AA7
:100A70000319FA2C4F08623A0319082D4F08633AFC
:100A80000319162D1B2D4301CF0AD52CF420080085
:100A900041016610E610420164104001C7014201A5
:100AA00064116412E41364134101E6134201E4107B
:0A0AB0004101E6124201E4120800C1
:100ABA00AE304301D8007021DA20410142084301D7
:100ACA00E500A32040304301E500A3204301CF0104
:100ADA004F08073C031C822D4F08E000E101082162
:100AEA004301CE0180304E020318802DE501A32078
:100AFA004301CE0A772DCF0A6D2DF420AF30430182
:060B0A00D8007021080074
:100B10004301D80137224301D8011830D900A03051
:100B2000DA000030DB000330DC00492243012608F4
:100B30004201E600430125084201E7004301240881
:100B40004201E800430123084201E9004301220871
:100B50004201EA00430121084201EB004301200861
:100B60004201EC004301D8013E30D9006630DA0082
:0C0B70000130DB000730DC0049220800E7
:100B7C000B084301D10000304F05F3005008FF393A
:100B8C00F4007408F000F101700850019D00FF3072
:100B9C0043014F0550019C0044309E0470309B0073
:100BAC0043014E0850019A0080229E1CDE2DDB2D45
:0E0BBC004301D11BE32D8B13E42D8B17080092
:0A0BCA005D2588258722E42208003B
:100BD400AE304301D8007021DA20410142084301BC
:100BE400E500A32040304301E500A3204301CD01EB
:100BF4004D08033C031C262E4D08E000E1010821AA
:100C04004301CC014C087F3C031C242E0730F20026
:100C14004D08F000F10172080319142EF035F10D9E
:100C2400FF3E0E2E4C08F0070030F13DAA3070074D
:100C34008400A030713D85000008E500A320430135
:100C4400CC0A042ECD0AFA2DF420AF304301D8008B
:040C54007021080003
:0E0C5800F201F101F001F801F3010030080093
:100C660042019E18382E0000332E43014C084201E3
:040C76009A000800D8
:100C7A005D254301CE01CF013830D0000030D100CC
:100C8A000930D200092302304301CE00CF012A30B5
:100C9A00D0000030D1000930D20009234301CE012F
:100CAA002A30CF002630D0000030D1000130D200E7
:100CBA00092302304301CE002A30CF002830D00069
:0C0CCA000030D1000130D20009230800E6
:100CD6005D254301D8011E30D9005330DA000030BB
:100CE600DB000B30DC0049224301CE0140240330F7
:100CF6004301D8003730D9003430DA000030DB0049
:100D06000330DC00492230304101E7000330430163
:100D1600D8005030D900E730DA000030DB0001306F
:0A0D2600DC0049224101EF01080042
:0C0D3000003042019E180130F000080065
:100D3C00FB14FB1FA82EFF30F300F200F100F000B3
:080D4C00FA0DF20CFF30080063
:0C0D540000304E018F1A0130F000080042
:080D6000FA1FF2130030080035
:100D680064304301CD007E0145144E011612400146
:100D7800991618124101E5015D2518134101661104
:100D8800E6114301CE01CF01D001BE2540010D1966
:100D9800CF2E0314D02E0310031CD42E0000CA2E0D
:100DA8004301CC014D084C020318F02E40010D19E7
:100DB800DF2E0314E02E0310031CE42E4301CC01A4
:100DC8006830FC00E430FD004301FD0BE82EFC0B0D
:0C0DD800E82E0000CC0AD62E48250800AA
:100DE4007B15FB1FFC2E0130F300F201F101F00131
:080DF400FA0DF20CFF300800BB
:0C0DFC003A30FD00FD0B002F0000080045
:100E080042011908F1009D1C0B2F1D121D167108B7
:040E1800F0000800DE
:100E1C003F3043014A0541019E00FE261314000099
:100E2C00131C192F162F0C08F0000D08F1000800E8
:100E3C00FB09FA09F909F809F80A0319F90A03195F
:080E4C00FA0A0319FB0A080071
:100E54007C18602FFC18312F7C197F2F2A2FA101B9
:100E64007208031D512F7108F2007008F100780810
:100E7400F000F801A1157208031D512F7108F2004A
:100E84007008F100F001A11121167208031D512F01
:100E94007108F200F101A11572080319732F2108DA
:100EA400F302031D031C772F0310F21B602FF80DB0
:100EB400F00DF10DF20DF30B572F772F7B1B701CE8
:100EC4007B2FF81F7B2FF00A0319F10A0319F20A8A
:100ED400031D7B2FF20CF10CF00CF30A03197F2F86
:100EE4007B2F0130FC002C26822F0230FC00F226DE
:100EF400822F0430FC00B026822F0830FC009E268E
:040F040000000800E1
:100F080002304301CC00332698267008003A031DAE
:100F18008F2F0000882F63084301CC0033269826C2
:100F28007008003A031D9A2F0000932F62084301AE
:100F3800CC00332698267008003A031DA52F000020
:100F48009E2F61084301CC00332698267008003A8A
:100F5800031DB02F0000A92F60084301CC003326E1
:100F680098267008003A031DBB2F0000B42F6508AF
:100F78004301CC00332698267008003A031DC62F7B
:100F88000000BF2F00304101E61901304301CC00B9
:100F9800332698267008003A031DD42F0000CD2F61
:020FA80008003F
:100FAA007B14FB1FE02FF201FA1FFF30F200F10061
:0A0FBA00F000FA0DF20CFF30080001
:100FC4004001F801F9011030FC00710DF80DF90D24
:100FD4007408F8027508031C750FF9020318F92F39
:100FE4007408F80775080318750FF9070310F00D56
:080FF400F10DFC0BE72F0800D2
:1010000080310427883170084301CA007008013A12
:10101000031D88288031AA2688317008003A031DF4
:10102000132800000A288031042788317008430102
:10103000A6008031AA2688317008003A031D2228B4
:101040000000192880310427883170084301A50069
:101050008031AA2688317008003A031D312800002B
:10106000282880310427883170084301A40080318A
:10107000AA2688317008003A031D4028000037284E
:1010800080310427883170084301A3008031AA26EB
:1010900088317008003A031D4F280000462880312F
:1010A0000427883170084301A2008031AA268831C4
:1010B0007008003A031D5E2800005528803104277F
:1010C000883170084301A1008031AA268831700858
:1010D000003A031D6D280000642880310427883100
:1010E00070084301A0008031AA2688317008003AB8
:1010F000031D7C2800007328803104278831700884
:10110000013A031D85284101E61541016612F428C4
:1011100043014A08033A031DED288031AA2688318D
:101120007008003A031D962800008D28803104279E
:1011300088317008E30002304301CE007008CF0010
:10114000D0018031BE2588318031AA2688317008CF
:10115000003A031DAD280000A428803104278831FF
:101160007008E20003304301CE007008CF00D001C8
:101170008031BE2588318031AA2688317008003A36
:10118000031DC4280000BB28803104278831700863
:10119000E10004304301CE007008CF00D00180315F
:1011A000BE2588318031AA2688317008003A031D97
:1011B000DB280000D2288031042788317008E00045
:1011C00005304301CE007008CF00D0018031BE252C
:1011D0008831803187228831F42843014A08043A53
:0A11E000031DF42841016617080002
:1011EA0064304301CB004101661E3D2980315D25F3
:1011FA00883101304301CE000330CF004830D0009F
:10120A000030D1000A30D2008031092388310D190B
:10121A001029031411290310031C152900000C2995
:10122A004301CA014B084A020318312940010D192A
:10123A002029031421290310031C25294301CA016B
:10124A006830FC00E430FD004301FD0B2929FC0B4A
:10125A0029290000CA0A1729420164104001C7015E
:10126A004201641C3C298031B42688313D29352944
:02127A0008006A
:10127C007408F8027508031C750FF9027608031C34
:10128C00760FFA027708031C770FFB02F30D073079
:10129C00FC00730DF80DF90DFA0DFB0D7408731CA1
:1012AC006529F8027508031C750FF9027608031CF2
:1012BC00760FFA027708031C770FFB027229F807E6
:1012CC0075080318750FF90776080318760FFA07D7
:1012DC0077080318770FFB07F30DFC0B4F29720DE2
:1012EC00F80DF90DFA0DFB0D7408731C8B29F8021F
:1012FC007508031C750FF9027608031C760FFA02A9
:10130C007708031C770FFB029829F8077508031858
:10131C00750FF90776080318760FFA077708031884
:10132C00770FFB07F20D0730FC00720DF80DF90D6D
:10133C00FA0DFB0D7408721CB129F8027508031C18
:10134C00750FF9027608031C760FFA027708031C56
:10135C00770FFB02BE29F80775080318750FF907FC
:10136C0076080318760FFA0777080318770FFB0730
:10137C00F20DFC0B9B29710DF80DF90DFA0DFB0DFF
:10138C007408721CD729F8027508031C750FF90232
:10139C007608031C760FFA027708031C770FFB0202
:1013AC00E429F80775080318750FF9077608031870
:1013BC00760FFA0777080318770FFB07F10D073044
:1013CC00FC00710DF80DF90DFA0DFB0D7408711C74
:1013DC00FD29F8027508031C750FF9027608031C29
:1013EC00760FFA027708031C770FFB020A2AF8071C
:1013FC0075080318750FF90776080318760FFA07A6
:10140C0077080318770FFB07F10DFC0BE729700D1C
:10141C00F80DF90DFA0DFB0D7408711C232AF80256
:10142C007508031C750FF9027608031C760FFA0277
:10143C007708031C770FFB02302AF807750803188E
:10144C00750FF90776080318760FFA077708031853
:10145C00770FFB07F00D0730FC00700DF80DF90D40
:10146C00FA0DFB0D7408701C492AF8027508031C50
:10147C00750FF9027608031C760FFA027708031C25
:10148C00770FFB02562AF80775080318750FF90732
:10149C0076080318760FFA0777080318770FFB07FF
:1014AC00F00DFC0B332A7018692A7408F8077508BC
:1014BC000318750FF90776080318760FFA077708E3
:0814CC000318770FFB0708006D
:1014D4007B2A8031EA2588318C2A8031E5258831C0
:1014E4008C2A80313D2688318C2A80316B268831C4
:1014F4008C2A42013F08003A03196B2A3F08013A3B
:1015040003196F2A3F08023A0319732A3F08033A62
:061514000319772A08000C
:06151A00FB15FF30080084
:10152000A1017208031DA52A7108F2007008F100DC
:10153000F001A1157208031DA52A7108F200F1013E
:10154000A111211672080319B32A2108F302031D01
:10155000031CB92A0310F21BBF2AF00DF10DF20D86
:10156000F30BAB2AB92A0130FC0080312C268831DC
:10157000C42A0230FC008031F2268831C42A0430AB
:0A158000FC008031B026883108001D
:10158A004301D8010F30D9003330DA000130DB00D3
:10159A000B30DC00803149228831430122084201A4
:1015AA00E600430121084201E70043012008420105
:1015BA00E8004301D8015C30D9006630DA00013016
:0E15CA00DB000330DC0080314922883108004C
:0E15D80055307D018F00AA308F000F140800DF
:1015E6000C304301CA0080310E2788317008430150
:1015F600C3007108C4000B30CA0080310E27883141
:1016060070084301C5007108C6007108013C031D3E
:101616000E2B7008C23C0318562B02304602031DDF
:10162600162B8A3045020318562B4201E416430155
:101636004408013C031D212B4308F43C0318262BC8
:1016460042016417552B43014408013C031D2D2B11
:1016560043080E3C0318322B4201E417552B430175
:101666004408003C031D392B4308963C03183E2BC7
:1016760042016416552B43014408003C031D452BCB
:101686004308463C03184A2B42016415552B00308B
:1016960043014402031D512B463043020318552BC8
:1016A6004101E617802B43014608003C031D5D2BD4
:1016B6004508BE3C03186B2B00304602031D652B04
:1016C600FA30450203186B2B4201E416E414802B12
:1016D60043014608003C031D722B4508643C031871
:1016E600802B00304602031D7A2BA03045020318DA
:1016F600802B4201E4164101E6160C304301CA0074
:1017060080310E27883170084301C3007108C40078
:101716000B30CA0080310E27883170084301C5009E
:101726007108C6007108033C031D9B2B7008E83C3A
:101736000318A62B4608033C031DA32B4508E83CCB
:101746000318A62BB32B0530FB000F30FC00F1303D
:10175600FD00FD0BAC2BFC0BAC2BFB0BAC2B802B41
:02176600080079
:101768004301C701053047020318C42B4708450742
:1017780086000030463D870020308100C70AB62B1E
:101788004708450786000030463D87008101C703AA
:1017980047084507C8000030463DC9000A30F40034
:1017A800F5014308F0004408F1008031E227883150
:1017B8007808F0007908F1003030F0074301480854
:1017C800860049088700700881000A30F400F50196
:1017D8004308F0004408F1008031E227883170089E
:1017E8004301C3007108C40000307106031DFE2BBD
:1017F80000307006031D012C032CC703CC2B0800F6
:1018080005304301CC00803133268831410166160A
:101818004301C301C40180304406F0008030073A18
:101828007002031D192CD03043020318322C80316A
:10183800AA2688317008013A031D242C0020322C76
:101848000B30FC006230FD00FD0B282CFC0B282C13
:1018580000004301C30A0319C40A0F2CF5204101F3
:10186800661E372C502C8031842788318031E5253D
:1018780088314101E6117A30FB00C130FC0081302B
:10188800FD00FD0B452CFC0B452CFB0B452C0000EB
:0A18980000006A224E011616080037
:1018A20050011E1770309B004301430850019A00FB
:1018B2001E141D08F100F0011C08F0040030F104B0
:0218C20008001C
:1018C4004001FB01730803199E2C7208FA00F217F9
:1018D4008E30F302F31FA12CF309F30A08307302CC
:1018E400031C842CF300F10D7208F100F20108309E
:1018F4007302031C842CF300F10DF1017308031D22
:1019040003108C2C730803198C2C0310F20CF10CAB
:10191400F30B872C7B1B711C962C031C962CF10A51
:101924000319F20AF21BAD2CFA1FB02CF209F109CB
:10193400F10A0319F20AB02CF201F101B02C7B1464
:10194400FB1FB32CF201FA1FB32CFF30F200F1009D
:10195400FA0DF20CB32C0130FC00B52C0030FC0065
:10196400B52CFF30FC00FC080319BB2C8031D527B3
:0C19740088317108F0007208F1000800D2
:101980004001FB017308031D77080319162D720827
:101990007606FA007708F3077E30031CD32CF30297
:1019A00003181B2DD62CF302031C202D7208F800FF
:1019B0007108FC007008FD00F817F6170310F2011B
:1019C000F101F0011830A1007D1CF02C7408F00723
:1019D00075080318750FF10776080318760FF207DC
:1019E000F20CF10CF00CF80CFC0CFD0C0310A10B2C
:1019F000E42CF21B002DF80DF00DF10DF20DF303A8
:101A00007B1B701C122DF81F122DF00A0319F10A0E
:101A10000319F20A031D122DF20CF10CF00CF30A5B
:101A200003191B2DFA1FF2130030242D01308031D1
:101A30002C268831242D023080319E268831242D99
:0C1A400004308031F226883100000800DC
:0E1A4C001E304301CA0080310E278831080089
:101A5A007408003A031D462D7508003A031D462DE9
:101A6A007608003A031D462D7708003A031D462DD5
:101A7A00FF30F000FF30F1007F30F200FF30F3005A
:101A8A00E62D400177080319D42D73080319D72DC1
:101A9A00720876068039FA00F217F617A101720861
:101AAA00F8007108FC007008FD007408FD02750852
:101ABA00031C750FFC027608031C760FF802F80166
:101ACA00FC01FD01031C702D0310F20CF10CF00C4B
:101ADA00F80C0130A1007708F302031C7A2D7E303E
:101AEA002107F3070318DC2D7F2D7E302107F3072A
:101AFA00031CE12D1830FA07FD0DFC0DF80DF00D51
:101B0A00F10DF20DA10D7408F0027508031C750F92
:101B1A00F1027608031C760FF202760DA104211C4D
:101B2A00982D7D14A32D7408F00775080318750FF6
:101B3A00F10776080318760AF2077D10FA031F30B8
:101B4A007A05031D812D7B1B7D1CCA2D0310F00D08
:101B5A00F10DF20DA10D7408F0027508031C750F42
:101B6A00F1027608031C760FF202760D2104013980
:101B7A00FD070318FC0A0319F80A031DCA2DF80CFD
:101B8A00FC0CFD0CF30A0319DC2DFA1FF813780874
:101B9A00F2007C08F1007D08F0000030E52D0130EC
:101BAA008D22E52D023080312C268831E52D043036
:101BBA0080319E268831E52D08308031F226883121
:041BCA00000008000F
:101BCE00400172087606A100F801F9017308770248
:101BDE00031C092E7708FD007308F7007D08F3003B
:101BEE007608FD007208F6007D08F2007508FD000B
:101BFE007108F5007D08F1007408FD007008F4000E
:101C0E007D08F00077080319882E7208FA00F21783
:101C1E00F61777087302F70003193C2E0830770287
:101C2E00031C322EF7007408F9007508F4007608CC
:101C3E00F500F60108307702031C322EF700740807
:101C4E00F9007508F400F50108307702031C322EF6
:101C5E007A08F200882E770803193C2E0310F60C32
:101C6E00F50CF40CF90CF70B352EA11F492EF909C2
:101C7E00F409F509F609F90A0319F40A0319F50A24
:101C8E000319F60A7908F80774080318740FF00799
:101C9E0075080318750FF10776080318760FF2070B
:101CAE00A11B622E031C722EF20CF10CF00CF80C20
:101CBE00F30F722E822E0318782EF809F009F1090F
:101CCE00F209F80A0319F00A0319F10A0319F20AC4
:101CDE008030FA067E2E0130FC0080312A278831B2
:101CEE008A2E0230FC0080312A2788318A2E043059
:101CFE00FC0090228A2E0830FC0080319E2688310E
:0A1D0E008A2E0030FC0000000800DF
:0E1D180055307D018F00AA308F000F1008009B
:101D260042014108F000F10170084301C300FF3091
:101D3600420140054301C4000630CC008031332601
:101D460088318031982688317008003A031DAD2EFF
:101D56000000A42E43014308CC008031332688318D
:101D66008031982688317008003A031DBC2E000089
:101D7600B32E43014408CC008031332688318031AC
:101D8600982688317008003A031DCB2E0000C22E1B
:101D96005108F000F10170084301C300FF30420111
:101DA60050054301C4000730CC008031332688310A
:101DB6008031982688317008003A031DE42E000011
:101DC600DB2E43014308CC00803133268831803135
:101DD600982688317008003A031DF32E0000EA2E7B
:101DE60043014408CC00803133268831803198265F
:101DF60088317008003A031D022F0000F92E0800F2
:101E060040012230FC00F801F901FA01FB01FC0354
:101E16000319382F0310FB0CFA0CF90CF80CF30C11
:101E2600F20CF10CF00C031C0A2FFC0303192A2FE9
:101E36007408F80775080318750FF907760803186C
:101E4600760FFA0777080318770FFB070E2F74082B
:101E5600F80775080318750FF90776080318760F43
:0C1E6600FA0777080318770FFB07080045
:0E1E72001F304301CA0080310E27883108005E
:101E800040017008F8007108F0007208F100730852
:101E9000F200F301FB01FC019E30F300FA01F21F96
:101EA0005D2FF809F009F109F209F80A0319F00A9F
:101EB0000319F10A0319F20AFA170230FC00803103
:061EC0002A27883108000A
:101EC600710DF80DF90D7408F8027508031C750FED
:101ED600F902F00DF10D0F30FC00710DF80DF90D42
:101EE6007408701C7C2FF8027508031C750FF90224
:101EF600812FF80775080318750FF907F00DF10D16
:101F0600FC0B702F70188D2F7408F80775080318CE
:081F1600750FF9070000080037
:101F1E004201C001C101D001D1014301BD01BE0189
:101F2E0038083E02031D9D2F37083D020318D42F9B
:101F3E00262570084301B9007108BA0039277008C8
:101F4E004301BB007108BC003A0842014102031D67
:101F5E00B42F43013908420140020318C62F430132
:101F6E0039084201C00043013A084201C100430151
:101F7E003B084201D00043013C084201D1000B3026
:101F8E00FC006230FD00FD0BCA2FFC0BCA2F0000B7
:101F9E004301BD0A0319BE0A972F40018E1ED82F8A
:041FAE00932608006E
:0E1FB2001C304301CA0080310E278831080020
:101FC00043012708B7002808B8008F279031C92699
:041FD000883108004C
:101FD40042019E1690309D004E018F1EF52F420146
:081FE4001908F000EE2F0800BF
:0C1FEC00803148258831E411E41208001F
:081FF8008031F420883108005B
:102000007408003A031D19287508003A031D1928A1
:102010007608003A031D19287708003A031D19288D
:10202000FF30F000FF30F100FF30F2007F30F300AE
:10203000B5284001FC01F71BFC0AFD01FB01FA0178
:10204000F901F80173087204710470040319AE28D1
:1020500073087706A000A01BFD09F71F3A28F409B2
:10206000F509F609F709F40A0319F50A0319F60A3E
:102070000319F70AF31F4728F009F109F209F309D8
:10208000F00A0319F10A0319F20A0319F30A730893
:102090007704A000A01B6A2888313E219031FC1BE8
:1020A0008728FD1FAE28F009F109F209F309F00AAB
:1020B0000319F10A0319F20A0319F30AF809F909D5
:1020C000FA09FB09F80A0319F90A0319FA0A0319AC
:1020D000FB0AAE28F71F8128F31B7B287308FB003F
:1020E0007208FA007108F9007008F800F301F201B3
:1020F000F101F0015128F301F201F101F001F00AC0
:102100000034F309F209F109F009FC174C28F80A28
:102110000319F90A0319FA0A0319FB0A7408780269
:10212000031D512875087902031D512876087A028B
:10213000031D512877087B02031D5128FB01FA017A
:10214000F901F801F00A0319F10A0319F20A031957
:10215000F30AF31F5128A0012016FF34A0017C1CB4
:0C216000B42880311E279031003E08009A
:10216C0043013708233C0318BD28F001492D3808DA
:10217C00003A031D0B2A3A080319C72888318C260C
:10218C0090317729430139087E019000042A4301DC
:10219C0039087E019100042A430139087E0192001E
:1021AC00042A430139087E019300042A43013908AB
:1021BC007E019400042A430139087E019500042A0B
:1021CC00430139087E019600042A430139087E0137
:1021DC009700042A430139087E019800042A430120
:1021EC0039087E019900042A430139087E019A00BE
:1021FC00042A430139087E019B00042A4301390853
:10220C007E019C00042A430139087E019D00042AAA
:10221C00430139087E019E00042A430139087E01DE
:10222C009F00042A430139087E01A000042A4301BF
:10223C0039087E01A100042A430139087E01A2005D
:10224C00042A430139087E01A300042A43013908FA
:10225C007E01A400042A430139087E01A500042A4A
:10226C00430139087E01A600042A430139087E0186
:10227C00A700042A430139087E01A800042A43015F
:10228C0039087E01A900042A430139087E01AA00FD
:10229C00042A430139087E01AB00042A43013908A2
:1022AC007E01AC00042A430139087E01AD00042AEA
:1022BC00430139087E01AE00042A430139087E012E
:1022CC00AF00042A430139087E01B000042A4301FF
:1022DC0039087E01B100042A430139087E01B2009D
:1022EC00042A43013708003A0319C8283708013A71
:1022FC000319CD283708023A0319D2283708033AB4
:10230C000319D7283708043A0319DC283708053A8B
:10231C000319E1283708063A0319E6283708073A63
:10232C000319EB283708083A0319F0283708093A3B
:10233C000319F52837080A3A0319FA2837080B3A13
:10234C000319FF2837080C3A0319042937080D3AEA
:10235C000319092937080E3A03190E2937080F3AC1
:10236C00031913293708103A031918293708113A99
:10237C0003191D293708123A031922293708133A71
:10238C00031927293708143A03192C293708153A49
:10239C00031931293708163A031936293708173A21
:1023AC0003193B293708183A031940293708193AF9
:1023BC000319452937081A3A03194A2937081B3AD1
:1023CC0003194F2937081C3A0319542937081D3AA9
:1023DC000319592937081E3A03195E2937081F3A81
:1023EC00031963293708203A031968293708213A59
:1023FC0003196D293708223A0319722943013A0847
:10240C0003190B2A8831EC22903143013808013A28
:10241C00031D7E2B3A080319162A88318C2690311D
:10242C00DA2A430137087D019000772B43013708E6
:10243C007D019100772B430137087D019200772BAA
:10244C00430137087D019300772B430137087D0149
:10245C009400772B430137087D019500772B4301BE
:10246C0037087D019600772B430137087D019700D3
:10247C00772B430137087D019C00772B43013708EC
:10248C007D019D00772B430137087D019E00772B42
:10249C00430137087D01A100772B430137087D01EB
:1024AC00A200772B430137087D01A300772B430152
:1024BC0037087D01A400772B430137087D01A50067
:1024CC00772B430137087D01A900772B430137088F
:1024DC007D01AA00772B430137087D01AB00772BD8
:1024EC00430137087D01AC00772B430137087D0190
:1024FC00B100772B430137087D01B200772B4301E4
:10250C0037087D01B300772B430137087D01B800F4
:10251C00772B430137087D01B900772B430137082E
:10252C007D01BA00772B430137087D01BB00772B67
:10253C00430137087D01BC00772B430137087D012F
:10254C00BD00772B430137087D01BE00772B43017B
:10255C0037087D01C300772B430137087D01C50087
:10256C00772B430137087D01C600772B43013708D1
:10257C007D01C700772B430137087D01C800772BFD
:10258C00430137087D01C900772B430137087D01D2
:10259C00CA00772B430137087D01CB00772B430111
:1025AC0037087D01CC00772B43013908003A031919
:1025BC00172A3908013A03191C2A3908023A031957
:1025CC00212A3908033A0319262A3908043A03192F
:1025DC002B2A3908053A0319302A3908063A031907
:1025EC00352A3908073A03193A2A3908083A0319DF
:1025FC003F2A3908093A0319442A39080A3A0319B7
:10260C00492A39080B3A03194E2A39080C3A03198E
:10261C00532A39080D3A0319582A39080E3A031966
:10262C005D2A39080F3A0319622A3908103A03193E
:10263C00672A3908113A03196C2A3908123A031916
:10264C00712A3908133A0319762A3908143A0319EE
:10265C007B2A3908153A0319802A3908163A0319C6
:10266C00852A3908173A03198A2A3908183A03199E
:10267C008F2A3908193A0319942A39081A3A031976
:10268C00992A39081B3A03199E2A39081C3A03194E
:10269C00A32A39081D3A0319A82A39081E3A031926
:1026AC00AD2A39081F3A0319B22A3908203A0319FE
:1026BC00B72A3908213A0319BC2A3908223A0319D6
:1026CC00C12A3908233A0319C62A3908243A0319AE
:1026DC00CB2A3908253A0319D02A3908263A031986
:1026EC00D52A43013A0803197E2B8831EC2290310C
:1026FC00BA2C43013818852B40011110872B40014F
:10270C001114472D430138188E2B40019110902B3A
:10271C0040019114472D43013818972B400111119A
:10272C00992B40011115472D43013818A02B40015E
:10273C009111A22B40019115472D43013818A92B5B
:10274C0040011112AB2B40011116472D43013818D3
:10275C00B22B40019112B42B40019116472D43012D
:10276C003818BB2B40011113BD2B40011117472DFD
:10277C0043013818C42B40019113C62B400191170B
:10278C00472D43013818CD2B40011210CF2B40019F
:10279C001214472D43013818D62B40019210D82B18
:1027AC0040019214472D43013818DF2B40011211C0
:1027BC00E12B40011215472D43013818E82B40013D
:1027CC009211EA2B40019215472D43013818F12B39
:1027DC0040011212F32B40011216472D43013818F9
:1027EC00FA2B40019212FC2B40019216472D43010B
:1027FC003818032C40011213052C40011217472DD9
:10280C00430138180C2C400192130E2C40019217E6
:10281C00472D43013818152C40011310172C40017B
:10282C001314472D430138181E2C40019310202CF3
:10283C0040019314472D43013818272C40011311E4
:10284C00292C40011315472D43013818302C400119
:10285C009311322C40019315472D43013818392C14
:10286C00400113123B2C40011316472D430138181D
:10287C00422C40019312442C40019316472D4301E6
:10288C0038184B2C400113134D2C40011317472DB6
:10289C0043013818542C40019313562C40019317C4
:1028AC00472D430138185D2C400114105F2C40015A
:1028BC001414472D43013818662C40019410682CD1
:1028CC0040019414472D430138186F2C400114110A
:1028DC00712C40011415472D43013818782C4001F8
:1028EC0094117A2C40019415472D43013818812CF2
:1028FC0040011412832C40011416472D4301381843
:10290C008A2C400194128C2C40019416472D4301C3
:10291C003818932C40011413952C40011417472D93
:10292C00430138189C2C400194139E2C40019417A1
:10293C00472D43013818A52C40011510A72C400138
:10294C001514472D43013818AE2C40019510B02CAE
:10295C0040019514472D43013818B72C400115112F
:10296C00B92C40011515472D43013708003A0319BE
:10297C007F2B3708013A0319882B3708023A0319C1
:10298C00912B3708033A03199A2B3708043A031989
:10299C00A32B3708053A0319AC2B3708063A031951
:1029AC00B52B3708073A0319BE2B3708083A031919
:1029BC00C72B3708093A0319D02B37080A3A0319E1
:1029CC00D92B37080B3A0319E22B37080C3A0319A9
:1029DC00EB2B37080D3A0319F42B37080E3A031971
:1029EC00FD2B37080F3A0319062C3708103A031938
:1029FC000F2C3708113A0319182C3708123A0319FF
:102A0C00212C3708133A03192A2C3708143A0319C6
:102A1C00332C3708153A03193C2C3708163A03198E
:102A2C00452C3708173A03194E2C3708183A031956
:102A3C00572C3708193A0319602C37081A3A03191E
:102A4C00692C37081B3A0319722C37081C3A0319E6
:102A5C007B2C37081D3A0319842C37081E3A0319AE
:102A6C008D2C37081F3A0319962C3708203A031976
:102A7C009F2C3708213A0319A82C3708223A03193E
:082A8C00B12CFF30F00008003E
:102A94004301D8010530D9002030DA000130DB00D1
:102AA4001230DC0080318021903102304301D800A3
:102AB4000530D900D430DA000030DB000C30DC0003
:102AC40080318021903102304301D8005430D90044
:102AD400E130DA000030DB000330DC00803180219B
:042AE4009031080025
:102AE8004301BD01BE013708BF003808C00080306F
:102AF8003806F00080307002031D842D0030370244
:102B08000318922D0130BD000030BE003708003C8C
:102B1800BF003808031C013EC001C0023F08C300C3
:102B28004008C4003908C5003A08C6008831B423F3
:102B380090310630BB000030BC003C08003C031D4F
:102B4800A72D3B08003C0318C22D3B083907860017
:102B58003C083A3D870001303B02F00000303C3B26
:102B6800F10070083907840071083A3D85000008B3
:102B780081000130BB020030BC3BA12D3908860022
:102B88003A088700203081003D083E040319E82DEB
:102B9800BB01BC013B08390784003C083A3D85006D
:102BA8000008203A031DDC2DBB0A0319BC0ACE2DF0
:102BB8000130BB020030BC3B3B08390786003C08AB
:0A2BC8003A3D87002D30810008001F
:102BD20080315D2590318831C52290318031872244
:102BE20090318031E42290314101E6136613803145
:102BF200AA2690317008013A031D022E8831002066
:102C020090318831F32290314101E61E382E033093
:102C12004201650203180E2EE50A0C304301CE0074
:102C2200420165084301CF00D0018031BE259031B9
:102C32000530FB000F30FC00F130FD00FD0B1F2EB4
:102C4200FC0B1F2EFB0B1F2E8031E42290310D3026
:102C5200FB002D30FC00D730FD00FD0B2E2EFC0BAF
:102C62002E2EFB0B2E2E000000004101E612420127
:102C7200E41C6A2E6508013C0318402EE5030C3063
:102C82004301CE00420165084301CF00D0018031EB
:102C9200BE2590310530FB000F30FC00F130FD0005
:102CA200FD0B512EFC0B512EFB0B512E8031E422D9
:102CB20090310D30FB002D30FC00D730FD00FD0BB4
:102CC200602EFC0B602EFB0B602E00000000420108
:102CD200E4104101E61F722EE6138831042490317C
:102CE2007E2E42016418792E4101661B792E7D2EBB
:0C2CF2008031B42690317E2EF82D0800B1
:102CFE0002304301CE00C030CF00D0018031BE255E
:102D0E00903103304301CE00A830CF00D001803186
:102D1E00BE25903104304301CE000230CF0000308A
:102D2E00D0008031BE25903105304301CE00A03059
:102D3E00CF00D0018031BE25903102304301C30057
:102D4E0088315124903170084201E3000330430171
:102D5E00C30088315124903170084201E2000430E2
:102D6E004301C30088315124903170084201E100C3
:102D7E0005304301C300883151249031700842015F
:042D8E00E000080059
:102D9200420140084301B700420141084301B80023
:102DA200B901BA01420150084301BB004201510876
:102DB2004301BC00BD01BE013708F0003808F10034
:102DC2003908F2003A08F30088314027903129305F
:102DD200F4005C30F5004130F6008530F7008831B0
:102DE200C024903170084301BF007108C00072080E
:102DF200C1007308C20080303E06F00080303A06FF
:102E02007002031D0E2F39083D02031D0E2F3808D4
:102E12003C02031D0E2F37083B02031C162F6430A1
:102E2200B700B801B901BA01762F3B083707F000A5
:102E32003C08383DF1003D08393DF2003E083A3D7C
:102E4200F3006430F400F501F601F701883103273D
:102E5200903143013708F4003808F5003908F600CC
:102E62003A08F7003B08F4023C08F53B3D08F63B04
:102E72003E08F73B002070084301B7007108B80014
:102E82007208B9007308BA008030F400803073060B
:102E92007402031D562F7208003C031D562F710841
:102EA200033C031D562F7008E73C03185E2FE730E2
:102EB200B7000330B800B901BA0180303A06F00019
:102EC20080307002031D6F2F00303902031D6F2FF7
:102ED20000303802031D6F2F643037020318762F3B
:102EE2006430B700B801B901BA010030F400C03053
:102EF200F5003030F6008930F7003F08F000400856
:102F0200F1004108F2004208F30088312D2590318A
:102F120070084301BF007108C0007208C100730845
:102F2200C2007008F4007108F5007208F600730818
:102F3200F7008831C02490310030F4000030F500F1
:102F42002030F6008130F70088312D25903170084D
:102F52004301BF007108C0007208C1007308C200BB
:102F62000030F4000030F5000030F6007E30F7004B
:102F72008831E725903170084301BF007108C00015
:102F82007208C1007308C20088316224903170084F
:102F92004201D2007108D30080307106F200803005
:102FA2007202031DD62F323070020318DB2FCE01BE
:102FB200CF01E32F430137084201CE004301380815
:062FC2004201CF000800EF
:102FC80043012708B7002808B8002908B900BA0142
:042FD800B620080017
:102FDC0012001E00F003031DEE2FF103031DEE2F54
:022FEC000800DB
:1030000040304301B9001F30BA00BB01BC01403061
:10301000F0001F30F1000030F2000030F3003708FC
:10302000F4003808F500F601F701883103279831DC
:1030300070084301B9007108BA007208BB00730838
:10304000BC0000307302031D2F2800307202031DE4
:103050002F2802307102031D2F28B230700203188E
:1030600032286128B230B9020230BA3B0030BB3B93
:10307000BC3B0530F000700803194428BC36BB0C7B
:10308000BA0CB90CFF3E3C283908F0003A08F100B0
:103090003B08F2003C08F3000130B9020030BA3BB3
:1030A000BB3BBC3B700871047204730403196128B4
:1030B0000000000000000000000000000000000010
:0430C0004428080098
:1030C4007408003A031D6F287508003A031D6F2821
:1030D400FF30F0007F30F100C9284001FD01F90103
:1030E400F801710870040319003471087506FA00B8
:1030F400FA1BFD09FB01F51F8428F409F509F40AFC
:103104000319F50AF11F8B28F009F109F00A0319D4
:10311400F10A71087504FA00FA1BA02888316327A4
:1031240098317B18B528FD1F0034F009F109F00A25
:103134000319F10AF809F909F80A0319F90A00341C
:10314400F51FB128F11BAD287108F9007008F800CB
:10315400F101F0019528F101F001F00A0034F109C0
:10316400F009FB0A9228F80A0319F90A740878028C
:10317400031D952875087902031D9528F901F801A6
:10318400F00A0319F10AF11F95280000FF34080022
:10319400003043012806031DD12800302706031DF3
:1031A400E1280230CE003C30CF006A30D00000303D
:1031B400D1000430D2008031092398310929430118
:1031C4002708B7002808B8006630B9000130BA00F3
:1031D400903174259831420169084101E7002E308D
:1031E400E80042016A084101E90042016B0841011B
:1031F400EA0002304301CE003C30CF00E730D0007B
:103204000030D1000430D200803109239831080005
:10321400003043012802031D11290A302702031834
:103224002029CE013C30CF00A430D0000030D100A2
:103234000330D2008031092398316D2900304301D5
:103244002802031D27296430270203183F29270871
:10325400B7002808B8006630B9000130BA009031D0
:103264007425983142016A084101E7002E30E800D4
:1032740042016B084101E900602905304301270739
:10328400F0000030283DF1007008A7007108A80084
:103294007008B7007108B8006630B9000130BA0090
:1032A40090317425983120304101E70042016908CA
:1032B4004101E80042016A084101E9004301CE01ED
:1032C4003C30CF00E730D0000030D1000330D200D2
:0832D400803109239831080044
:1032DC0064304301AA0090314A25983141016615AA
:1032EC000D304301C3008831512498317018812965
:1032FC00400199128329400199164301CE010130F6
:10330C00CF000030D0008031BE2598314101E6114C
:10331C008031482598318831F32298314201641F5D
:10332C009B2990317F269831A729E41F9E29A72934
:10333C004101E61AA5294201E418A529A729410152
:10334C00E61541016616400118177E014510430130
:10335C00A701A80180302806F0008030073A7002DF
:10336C00031DBA29D03027020318D4298031AA268C
:10337C0098317008013A031DC62988310020983114
:10338C000B30FC006230FD00FD0BCA29FC0BCA2976
:10339C0000004301A70A0319A80AB0292708D13C49
:1033AC00B7002808031C013E073CB8000020803100
:1033BC00482598318831F52098314101661EE7295E
:1033CC001D2A8031842798314101E61DF129903165
:1033DC00E9259831F42988310424983140010D19DC
:1033EC00F9290314FA290310031CFE290000F429FF
:1033FC004301A9012A08290203181A2A40010D19B0
:10340C00092A03140A2A0310031C0E2A4301A901DA
:10341C006830FC00E430FD004301FD0B122AFC0B6C
:10342C00122A0000A90A002A803148259831080088
:10343C00430127084201C200430128084201C3008E
:10344C00430129084201C40043012A084201C50076
:10345C0043012B084201DC0043012C084201DD0032
:10346C0043012D084201DE0043012E084201DF001A
:10347C0043012F084201D400430130084201D5001A
:10348C00430131084201D600430132084201D70002
:10349C00430133084201CA00430134084201CB0006
:1034AC00430135084201CC00430136084201CD00EE
:0234BC00080006
:1034BE004301C30188315124983100307106031D38
:1034CE006A2AFF307006031D752A4301CE010130B2
:1034DE00CF000030D0008031BE2598314301C301AA
:1034EE0088315124983170187F2A41016611812A42
:1034FE004101661501304301C300883151249831D2
:10350E0000307106031D8D2AFF307006031D972AA9
:10351E0001304301CE00CF01D0018031BE2598315C
:10352E0001304301C3008831512498317018A22A0A
:10353E0040019912A42A4001991602304301C3009A
:10354E0088315124983100307106031DB02AFF30A6
:10355E007006031DD72A02304301CE00C030CF00C3
:10356E00D0018031BE25983103304301CE00A83002
:10357E00CF00D0018031BE25983104304301CE00FA
:10358E000230CF000030D0008031BE25983105309A
:10359E004301CE00A030CF00D0018031BE2598313E
:1035AE0002304301C3008831512498317008420122
:1035BE00E30003304301C300883151249831700871
:1035CE004201E20004304301C30088315124983196
:1035DE0070084201E10005304301C30088315124D7
:1035EE00983170084201E0000C304301C30088316D
:1035FE005124983100307106031D072BFF307006E1
:10360E00031D132B0C304301CE000130CF000030D0
:10361E00D0008031BE2598310C304301C300883173
:10362E005124983170084201E5000D304301C3006A
:10363E0088315124983100307106031D282BFF303C
:10364E007006031D342B0D304301CE000130CF0028
:10365E000030D0008031BE2598310D304301C300BB
:10366E0088315124983170183F2B40019912412B0B
:10367E00400199160E304301C30088315124983110
:10368E0000307106031D4D2BFF307006031D572BA6
:10369E000E304301CE00CF01D0018031BE259831CE
:1036AE000E304301C3008831512498317008420115
:0436BE00BF00080041
:1036C200410145084301A700410146084301A80002
:1036D2008831E02798313F08023A031DA72B53088F
:1036E20041013E06031D782B3D0842015206031993
:1036F2008B2B420152084101BD0042015308410196
:10370200BE00420152084301A7004201530843018F
:10371200A8000A2142014F0841014006031D942BD3
:103722003F0842014E060319A72B42014E084101F0
:10373200BF0042014F084101C00042014E0843014F
:10374200A70042014F084301A800CA208030F000C0
:103752008030420153067002031DB12B5208963C81
:103762000318242C8030013AF00080304F0670029A
:10377200031DBD2B4E082C3C0318242C80315D25E3
:10378200983101304301CE000A30CF00B430D0006E
:103792000030D1000830D200803109239831420133
:1037A200E4157A30FB00C130FC008130FD00FD0BD6
:1037B200D82BFC0BD82BFB0BD82B00000000E411FC
:1037C2002C304301A7000130A8008831E02798314E
:1037D20080305306F00080307002031DF22B9630C9
:1037E2005202031C012C80304F06F0008030013A57
:1037F2007002031DFE2B2C304E02031C012C022CE6
:10380200032CD02B8031E525983142015208430127
:10381200A700420153084301A8000A2142014E08B1
:103822004301A70042014F084301A800CA202930E2
:10383200FB009630FC007F30FD00FD0B1E2CFC0BC4
:083842001E2CFB0B1E2C0800DC
:10384A004201E4124101E61F612C4001991E402CFD
:10385A00991280315D25983101304301CE001E3026
:10386A00CF00A830D0000030D1000630D20080311D
:10387A0009239831522C991680315D2598310130EF
:10388A004301CE002A30CF00AF30D0000030D10043
:10389A000430D2008031092398312930FB00963058
:1038AA00FC007F30FD00FD0B582CFC0B582CFB0B49
:1038BA00582C88316A2298314201641D702CBF014C
:1038CA000E304301CE00CF01D0018031BE259831A0
:1038DA0088316A2298314201641E812C0130BF006E
:1038EA000E304301CE000130CF00D0018031BE2519
:1038FA00983188316A2298314201E41F922C0230B1
:10390A00BF000E304301CE000230CF00D00180311B
:10391A00BE25983188316A2298314201641FA32C4E
:10392A000330BF000E304301CE000330CF00D00178
:10393A008031BE25983188316A22983180314825F4
:04394A0098310800A8
:10394E008831D92798317008E83CF2007108031CC1
:10395E00013E033CF30072084201EE007308EF00D3
:10396E0080307306F0008030023A7002031DC12CC5
:10397E004E307202031CCB2C41016508033A031D25
:10398E00CB2C0530E500DF2C803042016F06F000B5
:10399E008030023A7002031DD62C26306E02031CB4
:1039AE00DF2C41016508003A031DDF2C0330E500D2
:1039BE008030023AF000803042016F067002031D23
:1039CE00EA2C6E08263C031CF42C41016508053ACE
:1039DE00031DF42C0330E500072D803042016F06E5
:1039EE00F0008030023A7002031DFF2C08306E0288
:1039FE000318072D41016508033A031D072DE50144
:103A0E008030023AF000803042016F067002031DD2
:103A1E00122D6E08623C0318522DE4154001181247
:103A2E0080315D25983101304301CE001430CF0036
:103A3E006130D0000030D1000830D200803109232F
:103A4E0098318030023AF000803042016F067002E9
:103A5E00031D332D6E08583C03184E2D8831D9277F
:103A6E0098317008E83C4201EE007108031C013EDB
:103A7E00033CEF002930FB009630FC007F30FD0048
:103A8E00FD0B472DFC0B472DFB0B472D282DE4116D
:103A9E0088316A22983142013F08033A031DD62D20
:103AAE00033041016F020318662DEF0A42016E08C2
:103ABE004001DF0742016F084001E03DD62D410174
:103ACE00EF010330F4000030F50040015F08F00014
:103ADE006008F100622070084201EE007108EF00EC
:103AEE004001DF01E00180307106F2008030013AC2
:103AFE007202031D842D9030700203188B2D9030AE
:103B0E004201EE000130EF0042018030023AF00037
:103B1E0080306F067002031D962D6E08583C0318F8
:103B2E009C2D5830EE000230EF0090306E02F30004
:103B3E0001306F3BF4007308F0007408F100F137A8
:103B4E00F00CF11FAF2D031CAF2DF00A0319F10A73
:103B5E007008EE007108EF0070084301CE0080314E
:103B6E0040249831410165084301D8006630D900E0
:103B7E000130DA008031F9219831420168084101A3
:103B8E00E70003304301D8005030D900E730DA00A7
:103B9E000030DB000130DC00803149229831080012
:103BAE0004304301A7000730A8000030A900003000
:103BBE00AA003330AB000630AC00CC30AD00013083
:103BCE00AE00AA30AF000630B0000030B1000030B9
:103BDE00B2009830B3000630B4000030B5000030AB
:0C3BEE00B6001E228831EA27983108003A
:103BFA007E01B801C301CE01E401D9015916591752
:103C0A00D917C315431653019013941340018C011D
:103C1A008D018E018F0190019601970198019901FA
:103C2A009A0191013E30920020309300D0309400E6
:103C3A0095017E014415C4163A15BA154514883102
:103C4A008C26983109304301A7000130A80025309D
:103C5A00A9009031E427983108304301A700A80150
:103C6A001030A9009031E42798318831EC2298313C
:103C7A0040019F121F179F131E16C0309C00E03090
:103C8A009D004E018C1240019E174E0196168B170D
:103C9A007E01D316D4160530FB000F30FC00F1303C
:103CAA00FD00FD0B562EFC0B562EFB0B562E080064
:103CBA004201EE010A306E020318862E8031DA20A4
:103CCA009831410142084301E5008031A32098312F
:103CDA007008003A031D722E862E8031F420983126
:103CEA000D30FB002D30FC00D730FD00FD0B7B2E84
:103CFA00FC0B7B2EFB0B7B2E000000004201EE0A20
:103D0A005F2E4301E5018031A3209831AE30430193
:103D1A00E5008031A3209831D5304301E500803198
:103D2A00A320983180304301E5008031A3209831E7
:103D3A00A8304301E5008031A32098313F30430188
:103D4A00E5008031A3209831D3304301E50080316A
:103D5A00A3209831410144084301E5008031A320A2
:103D6A00983140304301E5008031A32098318D30ED
:103D7A004301E5008031A320983114304301E50066
:103D8A008031A320983181304301E5008031A3209E
:103D9A009831FF304301E5008031A3209831D930B2
:103DAA004301E5008031A3209831F1304301E50059
:103DBA008031A320983120304301E5008031A320CF
:103DCA00983102304301E5008031A3209831213037
:103DDA004301E5008031A32098314301E501803198
:103DEA00A32098317F304301E5008031A320983128
:103DFA002E304301E5008031A3209831410141086A
:103E0A000319142FA0304301E5008031A320983113
:103E1A00C0304301E5008031A3209831202FA13022
:103E2A004301E5008031A3209831C8304301E50001
:103E3A008031A3209831DA304301E5008031A32094
:103E4A00983102304301E5008031A3209831DB30FC
:103E5A004301E5008031A320983140304301E50059
:103E6A008031A3209831A4304301E5008031A3209A
:103E7A009831A6304301E5008031A3209831803182
:103E8A00F420983180315D259831AF304301D80054
:083E9A0080317021983108000D
:103EA2000E304201C6000730C700CA30C8000130D8
:103EB200C90041019301940195019601EC309A05E4
:103EC200133042016E05F000700841019A04C030BF
:103ED20042016E05F0000319842FC0306E05F20016
:103EE2000630F1007208F000710803197B2FF036DA
:103EF200FF3E762F700852018C008C170C1B832F0B
:103F020000007F2F872F5201FC308C0541011316D0
:063F1200131593170800CF
:103F18004101661D932F8031B4269831942F6E216C
:023F280008008F
:10400000CA249831FD25A0318831FC27A031420116
:10401000EE0198315127A03142019F1504309B00D9
:104020000D309C001E159831D725A0318831F62718
:10403000A03198315F22A03198315D26A031410135
:10404000661D252898316E21A03141014C08D00011
:104050004D08D1004E08D2004F08D3004C08420151
:10406000D80041014D084201D90041014E084201EA
:10407000DA0041014F084201DB0041014C08C80051
:104080004D08C9004E08CA004F08CB004101661D0B
:10409000982853084F02031D572852084E02031D4B
:1040A000572851084D02031D572850084C02031C85
:1040B00074282C30D0070130D13D0030D23DD33DA3
:1040C0008831F322A0314201E41E69289831252469
:1040D000A03198316123A03142013F08033A031D0A
:1040E00074289831A724A03142015B0841014F0296
:1040F000031D8A2842015A0841014E02031D8A28E5
:104100004201590841014D02031D8A284201580805
:1041100041014C02031C9728B8304201D8070B30EC
:10412000D93D0030DA3DDB3D9831A724A0319F28EE
:104130004101661F9F28661398316E21A03142010C
:0E414000641CA52898318C27A0314628A6289B
:10499400953084009F3085004930F0000130F100EB
:1049A40026308600003087009031EE27A031DE30BB
:1049B40084009F3085002130F0000130F100A030E8
:1049C4008600003087009031EE27A031FE3084004D
:1049D400873085000130F0000130F1006F3086002F
:1049E400003087009031EE27A0318A308400A43053
:1049F40085002030F0000130F100C1308600003025
:104A040087009031EE27A031AA308400A4308500BD
:104A14001330F0000130F1002030860001308700AF
:104A24009031EE27A031F7308400973085000430B0
:104A3400F0000130F100E130860000308700903151
:104A4400EE27A031BD308400A43085000C30F00086
:104A54000130F10033308600013087009031EE27B9
:104A6400A03103308400803085000130F000013033
:104A7400F100E5308600003087009031EE27A03148
:024A8400080028
:020006000034C4
:020FFC000034BF
:082FEE0031342E343334003479
:043F2A003D340034EE
:043F2E003D340034EA
:103F32005334573452342034203430342E34303415
:043F420030340034E3
:083F4600463441344E340034CE
:103F4E005034573452342034203430342E343034FC
:043F5E0057340034A0
:0A3F620053344C344F34543400340F
:023F6C0000341F
:103F6E00463450344734413420344534523452347C
:063F7E004F345234003400
:103F8400543445344D34503445345234413454342B
:083F9400553452344534003469
:043F9C0000340034B9
:103FA0004F34563445345234483445344134543413
:023FB0000034DB
:0A3FB20030342E3430343034003443
:083FBC0046342F345734003461
:083FC40030342E343034003497
:0E3FCC0055344E344D3455345434453400349D
:0A3FDA004D3455345434453400349E
:103FE40048344934473448342034533457345234F1
:023FF400003497
:043FF6000F34273429
:043FFA00003400345B
:1041540000348034E034F034F834F834FC34FC3483
:104164007C347C34FC34FC34F834F834F034E034FB
:1041740080340034003400340034FC34FC34FC3427
:10418400FC34FC34FC34FC347C347C34FC34FC34AB
:10419400FC34F834F834F034C034003400340C34D3
:1041A400FC34FC34FC34FC34FC34FC340034003483
:1041B4000034FC34FC34FC34FC34FC34FC340C3467
:1041C40000340034C034F034F834F834FC34FC34B3
:1041D400FC347C347C34FC34FC34FC34F834F83463
:1041E400F034C034003400340034C034F034F834D3
:1041F400F834FC34FC34FC347C347C34FC34FC343F
:10420400FC34F834F834F034C0340034003400346E
:104214000034FC34FC34FC34FC34FC34FC34FC3416
:10422400FC34FC34FC34FC34003400340C34FC34F2
:10423400FC34FC34FC34FC34FC34003400340034EE
:10424400FC34FC34FC34FC34FC34FC340C340034D6
:104254000034FF34FF34FF34FF34FF34FF34FF34C1
:1042640000340034FF34FF34FF34FF34FF34FF34B0
:10427400FF340034003400340034FF34FF34FF349E
:10428400FF34FF34FF34FF3400340034FF34FF3490
:10429400FF34FF34FF34FF34FF340034003400347F
:1042A400003407347F34FF34FF34FF34FE34C03429
:1042B400FE34FF34FF34FF347F34073400340034D9
:1042C400003400341F347F34FF34FF34FF34FF34B0
:1042D400FF34F834F834F734E734C734C734873458
:1042E400073407340034003400341F347F34FF347F
:1042F400FF34FF34FF34FF34F834F834F734E73450
:10430400C734C734873407340734003400340034E6
:104314000034FF34FF34FF34FF34FF34FF34FF3400
:10432400E034E034E034E034003400340034003469
:1043340007347F34FF34FF34FF34FE34C034FE349A
:10434400FF34FF34FF347F34073400340034003446
:104354000034FF34FF34FF34FF34FF34FF34FF34C0
:1043640000340034FF34FF34FF34FF34FF34FF34AF
:10437400FF340034003400340034FF34FF34FF349D
:10438400FF34FF34FF34FF3400340034FF34FF348F
:10439400FF34FF34FF34FF34FF340034003400347E
:1043A4000034003400340734FF34FF34FF34FF3466
:1043B400FF34FF34FF340734003400340034003455
:1043C40000340034E034E034E034E134E134E33404
:1043D400E7340F340F341F34FF34FF34FF34FF3419
:1043E400FF34FE34F83400340034E034E034E03494
:1043F400E134E134E334E7340F340F341F34FF3451
:10440400FF34FF34FF34FF34FE34F8340034003416
:104414000034FF34FF34FF34FF34FF34FF34FF34FF
:1044240007340734073407340034003400340034CC
:10443400003400340734FF34FF34FF34FF34FF34D6
:10444400FF34FF34073400340034003400340034C3
:10445400003403340F341F343F343F347F347F340B
:104464007C347C347F347F343F343F341F340F3406
:10447400033400340034003400347F347F347F3418
:104484007F347F347F347F347C347C347F347F3496
:104494007F347F343F343F340F34003400340034ED
:1044A40000340034003400347F347F347F347F346C
:1044B4007F347F347F3400340034003400340034DB
:1044C4000034003407341F341F343F343F347F3406
:1044D4007F347C347C347C347F347F343F343F34C9
:1044E4003F341F3407340034003407341F341F347E
:1044F4003F343F347F347F347C347C347C347F34A9
:104504007F343F343F343F341F34073400340034A5
:1045140000347F347F347F347F347F347F347F347E
:104524007E347E347E347E347E3400340034003471
:104534000034003400347F347F347F347F347F345C
:104544007F347F34003400340034003400340034C9
:1045540000340034003400340034003400345F3458
:104564000034003400340734003407340034143485
:104574007F3414347F34143424342A347F342A347A
:1045840012342334133408346434623436344934F2
:1045940055342234503400340534033400340034A8
:1045A40000341C3422344134003400344134223485
:1045B4001C34003408342A341C342A3408340834B3
:1045C40008343E3408340834003450343034003471
:1045D40000340834083408340834083400343034DF
:1045E40030340034003420341034083404340234B9
:1045F4003E345134493445343E34003442347F34FB
:104604004034003442346134513449344634213422
:10461400413445344B3431341834143412347F3437
:104624001034273445344534453439343C344A3421
:104634004934493430340134713409340534033491
:1046440036344934493449343634063449344934E7
:1046540029341E3400343634363400340034003403
:1046640056343634003400340034083414342234DC
:10467400413414341434143414341434413422348E
:104684001434083400340234013451340934063407
:1046940032344934793441343E347E341134113463
:1046A40011347E347F3449344934493436343E3409
:1046B40041344134413422347F344134413422344E
:1046C4001C347F3449344934493441347F34093407
:1046D4000934013401343E344134413451343234E8
:1046E4007F340834083408347F34003441347F3450
:1046F400413400342034403441343F3401347F3475
:1047040008341434223441347F3440344034403447
:1047140040347F340234043402347F347F3404342C
:10472400083410347F343E344134413441343E340F
:104734007F3409340934093406343E344134513465
:1047440021345E347F3409341934293446344634F0
:104754004934493449343134013401347F34013427
:1047640001343F344034403440343F341F34203427
:10477400403420341F347F342034183420347F34C0
:104784006334143408341434633403340434783410
:1047940004340334613451344934453443340034EB
:1047A40000347F3441344134023404340834103446
:1047B4002034413441347F3400340034043402342E
:1047C40001340234043440344034403440344034FE
:1047D4000034013402340434003420345434543466
:1047E400543478347F34483444344434383438349A
:1047F4004434443444342034383444344434483421
:104804007F343834543454345434183408347E34B3
:1048140009340134023408341434543454343C34E8
:104824007F340834043404347834003444347D341C
:10483400403400342034403444343D3400340034B3
:104844007F34103428344434003441347F344034C9
:1048540000347C3404341834043478347C3408341C
:1048640004340434783438344434443444343834E8
:104874007C341434143414340834083414341434A4
:1048840018347C347C340834043404340834483414
:10489400543454345434203404343F344434403491
:1048A40020343C344034403420347C341C342034B0
:1048B400403420341C343C344034303440343C34B0
:1048C400443428341034283444340C3450345034B0
:1048D40050343C344434643454344C34443400341C
:1048E4000834363441340034003400347F34003426
:1048F4000034003441343634083400340834083485
:104904002A341C34083408341C342A340834083457
:0249140001346C
:0449160078340034BD
:02491A00003467
:04491C0064340034CB
:02492000003461
:084922000034003400340034BD
:08492A000034003400340034B5
:084932000034003400340034AD
:10493A0020344634573420345634453452345334B0
:0A494A0049344F344E342034003459
:104954002034443445345334493447344E34453494
:10496400443420344234593420344E3437344434BB
:064974004434433400341A
:10497A0042344F344F3454344C344F344134443439
:08498A0045345234203400349E
:020000040001F9
:0A000E000421233E1F3F03300300CE
:00000001FF
