:040000009831CD2E38
:1000080070084001A5007108A4007208A3007308D5
:10001800A20080314E018C1E81288C1201304101D2
:10002800D4070030D53DD63DD73DC03040019C00B7
:10003800E0309D0041015B085702031D2D285A0836
:100048005602031D2D2859085502031D2D2858084E
:100058005402031C81280A30D8070030D93DDA3D04
:10006800DB3D40010D193A2803143B280310031CFB
:1000780051284001B4304E0203184328CE0A4E08D6
:10008800193A031D492841016E1540014E08B43A3A
:10009800031D502842016B15682840014E08023C98
:1000A800013003180030F10019304E0201300318F6
:1000B8000030F0007108F0050319672841016E143B
:1000C8004001CE016828CE010530410153020318D2
:1000D8006F28D30A71280130D300530840015F020A
:1000E800031C79280130F2007A28F20172187F285F
:1000F800400198138128400198177E01D51E952844
:100108004101EE1C8928F3018E28003040018E1A27
:100118000130F30073189328400118129528400104
:1001280018167E01BF01CA01D501EB01400125085F
:10013800F0002408F1002308F2002208F300090067
:10014800F101083071020318C1284401A01BAF282F
:1001580040011611B128400116151A30FD00FD0B9B
:10016800B328000096151A30FD00FD0BB9280000D1
:1001780096114401A035F10AA528400116151A3038
:10018800FD00FD0BC5280000961500300C19013044
:10019800F2001A30FD00FD0BCF28000096111A302E
:0E01A800FD00FD0BD52800007208F0000800D5
:1001B600400196151A30FD00FD0BDF2800001615CC
:1001C6001A30FD00FD0BE528000016111A30FD005F
:1001D600FD0BEB28000096111A30FD00FD0BF128EF
:0401E600000008000D
:1001EA0040016F0843016C07EF00DB2041014F0813
:1001FA004401A000A4204401A001A42043016B08EB
:10020A00B03E4401A000A42043016F080F3C031C28
:10021A0012296F08ED00EE0123296F08F200F23669
:10022A00F236F236F2367208EE007208F000F03555
:10023A00F035F035F03570086F02ED006D084401B5
:10024A00A000A42043016E08103E4401A000A4208F
:10025A00DB2041014F084401A000A42040304401A2
:06026A00A000A420080022
:10027000400116111A30FD00FD0B3C2900009615B7
:100280001A30FD00FD0B4229000016151A30FD0042
:08029000FD0B482900000800E5
:1002980040017008F100F0010830FC007108F40C0E
:1002A80003185A29FC0B5329F101003403105F2964
:1002B800F40C0318F107F10CF00CFC0B5C29080096
:1002C8004001F8010830FC00700DF80D7408F802C0
:1002D80003187029F8070310F00DFC0B68290800B3
:1002E800DB2041014F084401A000A42080304401D4
:1002F800A000A420430163084401A000A4203821E1
:020308000800EB
:10030A004301E6010330660203189529660864076B
:10031A0086000030653D870020308100E60A872983
:10032A006608640786000030653D87008101E603A0
:10033A0066086407E7000030653DE8000A30F4000B
:10034A006308F00064217808F0003030F0074301B8
:10035A006708860068088700700881000A30F40080
:10036A006308F000642170084301E3007008003A52
:0C037A00031DC029C229E6039D290800CC
:1003860043016308EB006408EC00F5204301E80133
:10039600670868020318002A6808650784000030A9
:1003A600663D850020300002EA00E9010530690259
:1003B6000318FA296A08F0000530F4004C214301BD
:1003C6006908F0070030F13D003070078400A23064
:1003D600713D85000008F10071084401A000A035B8
:1003E600A035A035A035A4204301E90AD929440146
:1003F600A001A4204301E80ACB2938214301630A5E
:10040600EB006408EC00F5204301E8016708680288
:1004160003183E2A6808650784000030663D85009B
:1004260020300002EA00E901053069020318382A83
:100436006A08F0000530F4004C2143016908F00712
:100446000030F13D003070078400A230713D850018
:100456000008F10071084401A000A036A036A036BD
:10046600A036A4204301E90A172A4401A001A420CA
:0A0476004301E80A092A38210800B2
:1004800043016308EB006408EC00F5204301E80138
:10049000670868020318772A680865078400003037
:1004A000663D850020300002EA00E901053069025E
:1004B0000318712A6A08F0000530F4004C2143014A
:1004C0006908F0070030F13D003070078400A23069
:1004D000713D850000084401A000A4204301E90A01
:1004E000562A4401A001A4204301E80A482A3821E1
:0204F000080002
:0E04F2008B1355309F00AA309F009E14080007
:1005000043016308EB00EC01F5204301E401803076
:1005100064020318912A4401A001A4204301E40AC3
:06052000872A38210800C3
:10052600DB2041014F084401A000A42040304401D3
:10053600A000A42001304301EB000E30EC00F520B2
:100546004301DA0164305A0203181C2BFF2AC0301B
:100556004401A000A420192B430159085A0203188C
:10056600B92AF0304401A000A420BD2A303044014D
:10057600A000A420192B430159085A020318C82ABF
:10058600F8304401A000A420CC2A08304401A00081
:10059600A420192B430159085A020318D72AF83008
:1005A6004401A000A420DB2A08304401A000A420B6
:1005B600192B430159085A020318E62AF030440160
:1005C600A000A420EA2A30304401A000A420192B60
:1005D600C0304401A000A420192B430159085A0237
:1005E6000318FA2AFC304401A000A420FE2A043095
:1005F6004401A000A420192B43015A08003A03190C
:10060600AA2A5A08013A0319AF2A5A08023A0319C4
:10061600BE2A5A08613A0319CD2A5A08623A0319C2
:10062600DC2A5A08633A0319EB2AF02A4301DA0A4C
:10063600A52A382141014F084401A000A4204030DA
:100646004401A000A42002304301EB000E30EC0070
:10065600F5204301DA0164305A020318A52B882BD2
:1006660003304401A000A420A22B430159085A02DA
:100676000318422B0F304401A000A420462B0C3057
:100686004401A000A420A22B430159085A020318D2
:10069600512B1F304401A000A420552B10304401DB
:1006A600A000A420A22B430159085A020318602B6C
:1006B6001F304401A000A420642B10304401A00088
:1006C600A420A22B430159085A0203186F2B0F309E
:1006D6004401A000A420732B0C304401A000A420E8
:1006E600A22B03304401A000A420A22B43015908E9
:1006F6005A020318832B3F304401A000A420872B05
:1007060020304401A000A420A22B43015A08003A3D
:100716000319332B5A08013A0319382B5A08023A9F
:100726000319472B5A08613A0319562B5A08623A9D
:100736000319652B5A08633A0319742B792B430165
:08074600DA0A2E2B382108000D
:10074E0042016F084301E3004330E4000130E5004D
:10075E0085212E304201C60001304301E3001130E5
:10076E00E4004330E5000130E6000430E700C32129
:10077E0042016E084301E3004330E4000130E5001E
:10078E0085212E304201C60001304301E3002A309C
:10079E00E4004330E5000130E6000430E700C321F9
:1007AE0042016D084301E3004330E4000130E500EF
:1007BE0085212E304201C60001304301E300433053
:1007CE00E4004330E5000130E6000430E700C321C9
:1007DE0042016C084301E3004330E4000130E500C0
:1007EE0085210130E3005C30E4004330E500013048
:0A07FE00E6000330E700C321080005
:1008080043015908EB005A08EC00F5204301DE01CA
:100818005D085E0203189E2C5E085B0784000030AA
:100828005C3D85000008003A031D1C2CE001252CC6
:100838005E085B07840000305C3D850020300002C4
:10084800E000DF015F08043C031C952C6008F00001
:100858000530F4004C2143015F08F0070030F13DFA
:10086800003070078400A230713D85000008E10067
:100878005908023A0319692CE119442CE213452C52
:10088800E217E119492C62134A2C621761194E2CA0
:10089800E2124F2CE2166119532C6212542C621684
:1008A800E118582CE211592CE215E1185D2C62115F
:1008B8005E2C62156118622CE210632CE214611838
:1008C800672C6210682C6214892C61196D2CE21354
:1008D8006E2CE2176119722C6213732C6217E118DF
:1008E800772CE212782CE216E1187C2C62127D2C0F
:1008F80062166118812CE211822CE2156118862C8F
:100908006211872C6215E210621062084401A0008F
:10091800A420430162084401A000A4204301DF0A87
:10092800262C4401A001A4204401A001A4204301D5
:10093800DE0A0C2C590AEB005A08EC00F52043019A
:10094800DE015D085E0203183F2D5E085B07840028
:1009580000305C3D85000008003A031DB52CE0011D
:10096800BE2C5E085B07840000305C3D85002030AB
:100978000002E000DF015F08043C031C362D60081C
:10098800F0000530F4004C2143015F08F007003007
:10099800F13D003070078400A230713D85000008E9
:1009A800E1005908023A0319022DE11BDD2CE2137C
:1009B800DE2CE217E11BE22C6213E32C6217611BA9
:1009C800E72CE212E82CE216611BEC2C6212ED2CEB
:1009D8006216E11AF12CE211F22CE215E11AF62C5A
:1009E8006211F72C6215611AFB2CE210FC2CE21440
:1009F800611A002D6210012D62142A2D611B062D2B
:100A0800E213072DE217611B0B2D62130C2D6217E1
:100A1800E11A102DE212112DE216E11A152D6212BB
:100A2800162D6216611A1A2DE2111B2DE215611A94
:100A38001F2D6211202D6215E119242DE210252D9C
:100A4800E214E119292D62102A2D6214620844016A
:100A5800A000A420430162084401A000A42043018F
:100A6800DF0ABF2C4401A001A4204401A001A42056
:0A0A78004301DE0AA52C3821080016
:100A82000B084301DC0000305A05F3005B08FF3914
:100A9200F4007408F000F101700850019D00FF306D
:100AA20043015A0550019C0044309E0470309B0063
:100AB2004301590850019A0079229E1C612D5E2D36
:0E0AC2004301DC1B662D8B13672D8B1708007C
:100AD0004301E30180224301E3011830E400A43024
:100AE000E5000030E6000330E7004022430126081D
:100AF000A7002508A8002408A9002308AA002208A6
:100B0000AB002108AC002008AD00E3013E30E4005A
:100B1000A730E5000130E6000730E700402208007A
:100B2000AE304301E3007421DB2041014F08440152
:100B3000A000A42040304401A000A4204301DA0119
:100B40005A08073C031CB62D5A08EB00EC01F520AF
:100B50004301D901803059020318B42D4401A0018A
:100B6000A4204301D90AAA2DDA0AA02D3821AF30DA
:080B70004301E30074210800B9
:100B780003304301E3002D30E4004F30E50000303E
:100B8800E6000430E700402241016F084301E3001A
:100B98004330E4000130E500852142014508C300E7
:100BA80003304301E3005030E4004330E5000130F6
:0A0BB800E6000130E70040220800CB
:100BC20041016E106E1142016B114001CE014201D2
:100BD2006B12EB124101EE116E124201EB13410155
:0A0BE200EE1342016B106B130800C4
:100BEC0090254301E3011E30E4003430E500003071
:100BFC00E6000B30E70040224301D9019322033079
:100C0C004301E3003330E4004030E5000030E600FF
:100C1C000330E700402230304201C300033043016F
:100C2C00E3004C30E4004330E5000130E6000130D5
:080C3C00E7004022EA01080074
:100C440090254301D901DA014430DB000030DC0097
:100C54000930DD00042402304301D900DA012630D2
:100C6400DB000030DC000930DD0004244301D9013D
:100C74002A30DA003030DB000030DC000130DD00E7
:100C8400042402304301D9002A30DA003230DB0078
:0C0C94000030DC000130DD00042408000A
:100CA000AE304301E3007421DB2041014F084401D1
:100CB000A000A42040304401A000A4204301D8019A
:100CC0005808033C031C8D2E5808EB00EC01F5205E
:100CD0004301D70157087F3C031C8B2E0730F200DD
:100CE0005808F000F101720803197A2EF035F10D61
:100CF000FF3E742E5708F0070030F13D00307007BA
:100D00008400A030713D850000084401A000A420AB
:100D10004301D70A6A2ED80A602E3821AF3043012A
:060D2000E300742108004D
:100D260042019E18982E0000932E43015708420157
:040D36009A00080017
:0C0D3A00003042019E180130F00008005B
:100D46007B15FB1FAD2E0130F300F201F101F0011E
:080D5600FA0DF20CFF30080059
:080D5E00FA1FF2130030080037
:0E0D6600F201F101F001F801F3010030080084
:0C0D74003A30FD00FD0BBC2E0000080012
:100D800042011908F1009D1CC72E1D121D16710885
:040D9000F000080067
:100D940064304301D8007E0145144E01161240010F
:100DA40099161812DF01902518134201EB10410126
:100DB400EE124301D901DA01DB01412540010D198D
:100DC400E52E0314E62E0310031CEA2E0000E02E89
:100DD4004301D701580857020318062F40010D1983
:100DE400F52E0314F62E0310031CFA2E4301D7012B
:100DF4006830FC00E430FD004301FD0BFE2EFC0BCB
:0C0E0400FE2E0000D70AEC2EE1250800AD
:0A0E100090256825A723BC250800E3
:0C0E1A0000304E018F1A0130F00008007B
:100E2600FB14FB1F1D2FFF30F300F200F100F00052
:080E3600FA0DF20CFF30080078
:100E3E003F304301550541019E00BA2613140000B0
:100E4E00131C2A2F272F0C08F0000D08F1000800A4
:060E5E00FB15FF30080047
:100E64003B2F50264C2F08274C2F22264C2FF6259B
:100E74004C2F41016D08003A0319332F6D08013AD4
:100E84000319352F6D08023A0319372F6D08033AF9
:060E94000319392F0800CC
:100E9A0002304301D70093269D267008003A031DAD
:100EAA00582F0000512F6F084301D70093269D2623
:100EBA007008003A031D632F00005C2F6E0843017F
:100ECA00D70093269D267008003A031D6E2F000056
:100EDA00672F6D084301D70093269D267008003AB4
:100EEA00031D792F0000722F6C084301D700932647
:100EFA009D267008003A031D842F00007D2F4101B2
:100F0A006F084301D70093269D267008003A031DF7
:100F1A00902F0000892F00304101EE1A0130430161
:100F2A00D70093269D267008003A031D9E2F0000C5
:040F3A00972F0800E5
:100F3E0064304301D60041016E1FE12F9025013030
:100F4E004301D9000330DA005430DB000030DC00FE
:100F5E000A30DD0004240D19B62F0314B72F031029
:100F6E00031CBB2F0000B22F4301D50156085502BA
:100F7E000318D72F40010D19C62F0314C72F0310C6
:100F8E00031CCB2F4301D5016830FC00E430FD007B
:100F9E004301FD0BCF2FFC0BCF2F0000D50ABD2F29
:100FAE0042016B114001CE0142016B1DE02FCA269A
:060FBE00E12FDB2F08000B
:100FC4007B14FB1FED2FF201FA1FFF30F200F1003A
:0A0FD400F000FA0DF20CFF300800E7
:100FDE00FB09FA09F909F809F80A0319F90A0319BC
:080FEE00FA0A0319FB0A0800CE
:040FF6003821080096
:101000008031C026883170084301D5007008013A4C
:10101000031D882880310D2788317008003A031D90
:10102000132800000A288031C02688317008430147
:10103000A60080310D2788317008003A031D222850
:10104000000019288031C026883170084301A500AE
:1010500080310D2788317008003A031D31280000C7
:1010600028288031C026883170084301A4008031CF
:101070000D2788317008003A031D402800003728EA
:101080008031C026883170084301A30080310D27CC
:1010900088317008003A031D4F280000462880312F
:1010A000C026883170084301A20080310D278831A5
:1010B0007008003A031D5E28000055288031C026C4
:1010C000883170084301A10080310D2788317008F4
:1010D000003A031D6D28000064288031C026883145
:1010E00070084301A00080310D2788317008003A54
:1010F000031D7C28000073288031C02688317008C9
:10110000013A031D85284101EE1641016E13F428B2
:1011100043015508033A031DED2880310D2788311E
:101120007008003A031D962800008D288031C026E3
:1011300088317008EF0002304301D9007008DA00EE
:10114000DB0180314125883180310D2788317008DD
:10115000003A031DAD280000A4288031C026883144
:101160007008EE0003304301D9007008DA00DB019B
:1011700080314125883180310D2788317008003A4F
:10118000031DC4280000BB288031C02688317008A8
:10119000ED0004304301D9007008DA00DB01803132
:1011A0004125883180310D2788317008003A031DB0
:1011B000DB280000D2288031C02688317008EC007E
:1011C00005304301D9007008DA00DB018031412588
:1011D00088318031A7238831F42843015508043A27
:0A11E000031DF4284201EB1508007E
:1011EA004001F801F9011030FC00710DF80DF90DFC
:1011FA007408F8027508031C750FF90203180C2904
:10120A007408F80775080318750FF9070310F00D2D
:08121A00F10DFC0BFA2808009D
:101222007C184729FC1818297C196C291129A1015D
:101232007208031D38297108F2007008F10078085D
:10124200F000F801A1157208031D38297108F20097
:101252007008F100F001A11121167208031D38294E
:101262007108F200F101A115720803195A29210827
:10127200F302031D031C60290310F21B4729F80D1A
:10128200F00DF10DF20DF30B3E2960297B1B701C52
:101292006629F81F6629F00A0319F10A0319F20AEE
:1012A200031D6629F20CF10CF00CF30A03196C29E8
:1012B20066290130FC008031B32688317129023061
:1012C200FC008031A326883171290430FC00803172
:1012D200AF26883171290830FC008031132788310C
:0412E2000000080000
:1012E600A1017208031D88297108F2007008F10037
:1012F600F001A1157208031D88297108F200F10199
:10130600A11121167208031996292108F302031D5B
:10131600031C9C290310F21BA229F00DF10DF20DFE
:10132600F30B8E299C290130FC008031B3268831CD
:10133600A7290230FC008031A3268831A729043072
:0A134600FC008031AF26883108005A
:101350007408F8027508031C750FF9027608031C5F
:10136000760FFA027708031C770FFB02F30D0730A4
:10137000FC00730DF80DF90DFA0DFB0D7408731CCC
:10138000CF29F8027508031C750FF9027608031CB3
:10139000760FFA027708031C770FFB02DC29F807A7
:1013A00075080318750FF90776080318760FFA0702
:1013B00077080318770FFB07F30DFC0BB929720DA3
:1013C000F80DF90DFA0DFB0D7408731CF529F802E0
:1013D0007508031C750FF9027608031C760FFA02D4
:1013E0007708031C770FFB02022AF8077508031819
:1013F000750FF90776080318760FFA0777080318B0
:10140000770FFB07F20D0730FC00720DF80DF90D98
:10141000FA0DFB0D7408721C1B2AF8027508031CD8
:10142000750FF9027608031C760FFA027708031C81
:10143000770FFB02282AF80775080318750FF907BC
:1014400076080318760FFA0777080318770FFB075B
:10145000F20DFC0B052A710DF80DF90DFA0DFB0DBF
:101460007408721C412AF8027508031C750FF902F2
:101470007608031C760FFA027708031C770FFB022D
:101480004E2AF80775080318750FF9077608031830
:10149000760FFA0777080318770FFB07F10D07306F
:1014A000FC00710DF80DF90DFA0DFB0D7408711C9F
:1014B000672AF8027508031C750FF9027608031CE9
:1014C000760FFA027708031C770FFB02742AF807DD
:1014D00075080318750FF90776080318760FFA07D1
:1014E00077080318770FFB07F10DFC0B512A700DDD
:1014F000F80DF90DFA0DFB0D7408711C8D2AF80218
:101500007508031C750FF9027608031C760FFA02A2
:101510007708031C770FFB029A2AF807750803184F
:10152000750FF90776080318760FFA07770803187E
:10153000770FFB07F00D0730FC00700DF80DF90D6B
:10154000FA0DFB0D7408701CB32AF8027508031C11
:10155000750FF9027608031C760FFA027708031C50
:10156000770FFB02C02AF80775080318750FF907F3
:1015700076080318760FFA0777080318770FFB072A
:10158000F00DFC0B9D2A7018D32A7408F807750813
:101590000318750FF90776080318760FFA0777080E
:0815A0000318770FFB07080098
:1015A80042015A08F000F10170084301CE00FF30F3
:1015B800420159054301CF000630D70080319326F8
:1015C800883180319D2688317008003A031DEE2A43
:1015D8000000E52A43014E08D70080319326883160
:1015E80080319D2688317008003A031DFD2A0000CD
:1015F800F42A43014F08D70080319326883180317F
:101608009D2688317008003A031D0C2B0000032B1F
:101618005C08F000F10170084301CE00FF30420180
:101628005B054301CF000730D7008031932688310E
:1016380080319D2688317008003A031D252B000053
:101648001C2B43014E08D700803193268831803106
:101658009D2688317008003A031D342B00002B2B7F
:1016680043014F08D70080319326883180319D2669
:1016780088317008003A031D432B00003A2B0800FC
:1016880040017008F8007108F0007208F100730852
:10169800F200F301FB01FC019E30F300FA01F21F96
:1016A800612BF809F009F109F209F80A0319F00A9F
:1016B8000319F10A0319F20AFA170230FC00112182
:0216C800080018
:0E16CA0055307D018F00AA308F000F100800F0
:1016D80050011E1770309B0043014E0850019A00BC
:1016E8001E141D08F100F0011C08F0040030F1047C
:0216F8000800E8
:1016FA004301D2010530520203188D2B52085007BC
:10170A0086000030513D870020308100D20A7F2BAD
:10171A005208500786000030513D87008101D203EC
:10172A0052085007D3000030513DD4000A30F4006B
:10173A00F5014E08F0004F08F100F5207808F00096
:10174A007908F1003030F007430153088600540845
:10175A008700700881000A30F400F5014E08F00095
:10176A004F08F100F52070084301CE007108CF0040
:10177A0000307106031DC32B00307006031DC62BF3
:08178A00C82BD203952B0800C7
:0E1792001E304301D50080311F27883108002A
:1017A0004001FB01730803190C2C7208FA00F217B0
:1017B0008E30F302F31F0F2CF309F30A0830730283
:1017C000031CF22BF300F10D7208F100F201083056
:1017D0007302031CF22BF300F10DF1017308031DDA
:1017E0000310FA2B73080319FA2B0310F20CF10CF7
:1017F000F30BF52B7B1B711C042C031C042CF10A2E
:101800000319F20AF21B1B2CFA1F1E2CF209F10914
:10181000F10A0319F20A1E2CF201F1011E2C7B14AD
:10182000FB1F212CF201FA1F212CFF30F200F100E6
:10183000FA0DF20C212C0130FC00232C0030FC00AE
:10184000232CFF30FC00FC080319292C8031E227EF
:0C18500088317108F0007208F1000800F7
:0E185C0055307D018F00AA308F000F14080058
:10186A004301E3010F30E4003730E5000130E600C0
:10187A000B30E70080314022883143012208A7005B
:10188A002108A8002008A900E3015C30E400A73081
:10189A00E5000130E6000330E7008031402288315C
:0218AA00080034
:1018AC000C304301D50080311F278831700843016B
:1018BC00CE007108CF000B30D50080311F27883146
:1018CC0070084301D0007108D1007108013C031D60
:1018DC00712C7008C23C0318B92C02305102031D44
:1018EC00792C8A3050020318B92C42016B17430132
:1018FC004F08013C031D842C4E08F43C0318892C22
:10190C0041016E16B82C43014F08013C031D902C6D
:10191C004E080E3C0318952C4101EE15B82C4301D2
:10192C004F08003C031D9C2C4E08963C0318A12C20
:10193C004201EB16B82C43014F08003C031DA82CA8
:10194C004E08463C0318AD2C42016B16B82C0030E7
:10195C0043014F02031DB42C46304E020318B82C21
:10196C004201EB17E32C43015108003C031DC02C32
:10197C005008BE3C0318CF2C00305102031DC82C5C
:10198C00FA3050020318CF2C42016B174101EE17AD
:10199C00E32C43015108003C031DD62C5008643C39
:1019AC000318E32C00305102031DDE2CA030500232
:1019BC000318E32C42016B176B140C304301D50058
:1019CC0080311F27883170084301CE007108CF0089
:1019DC000B30D50080311F27883170084301D000AF
:1019EC007108D1007108033C031DFE2C7008E83C03
:1019FC000318092D5108033C031D062D5008E83C23
:101A0C000318092D162D0530FB000F30FC00F130AA
:101A1C00FD00FD0B0F2DFC0B0F2DFB0B0F2DE32CE5
:021A2C000800B0
:101A2E00400172087606A100F801F90173087702E9
:101A3E00031C392D7708FD007308F7007D08F300AD
:101A4E007608FD007208F6007D08F2007508FD00AC
:101A5E007108F5007D08F1007408FD007008F400AF
:101A6E007D08F00077080319B42D7208FA00F217FA
:101A7E00F61777087302F70003196C2D08307702FA
:101A8E00031C622DF7007408F9007508F40076083F
:101A9E00F500F60108307702031C622DF70074087A
:101AAE00F9007508F400F50108307702031C622D69
:101ABE007A08F200B42D770803196C2D0310F60C7A
:101ACE00F50CF40CF90CF70B652DA11F792DF90906
:101ADE00F409F509F609F90A0319F40A0319F50AC6
:101AEE000319F60A7908F80774080318740FF0073B
:101AFE0075080318750FF10776080318760FF207AD
:101B0E00A11B922D031CA22DF20CF10CF00CF80C63
:101B1E00F30FA22DAE2D0318A62DF809F009F10929
:101B2E00F209F80A0319F00A0319F10A0319F20A65
:101B3E008030FA06AA2D0130FC001121B62D02309C
:101B4E00FC001121B62D0430FC007321B62D083097
:101B5E00FC00803113278831B62D0030FC000000C8
:021B6E0008006D
:0E1B70001F304301D50080311F278831080047
:101B7E007408003A031DD82D7508003A031DD82DA0
:101B8E007608003A031DD82D7708003A031DD82D8C
:101B9E00FF30F000FF30F1007F30F200FF30F30035
:101BAE007A2E400177080319662E730803196B2EDF
:101BBE00720876068039FA00F217F617A10172083C
:101BCE00F8007108FC007008FD007408FD0275082D
:101BDE00031C750FFC027608031C760FF802F80141
:101BEE00FC01FD01031C022E0310F20CF10CF00C93
:101BFE00F80C0130A1007708F302031C0C2E7E3086
:101C0E002107F3070318702E112E7E302107F307DC
:101C1E00031C752E1830FA07FD0DFC0DF80DF00D96
:101C2E00F10DF20DA10D7408F0027508031C750F6D
:101C3E00F1027608031C760FF202760DA104211C28
:101C4E002A2E7D14352E7408F00775080318750FAB
:101C5E00F10776080318760AF2077D10FA031F3093
:101C6E007A05031D132E7B1B7D1C5C2E0310F00DBD
:101C7E00F10DF20DA10D7408F0027508031C750F1D
:101C8E00F1027608031C760FF202760D210401395B
:101C9E00FD070318FC0A0319F80A031D5C2EF80C45
:101CAE00FC0CFD0CF30A0319702EFA1FF8137808BA
:101CBE00F2007C08F1007D08F0000030792E013032
:101CCE0080312F278831792E02308031B32688312A
:101CDE00792E0430803113278831792E08308031E7
:081CEE00A32688310000080064
:101CF60040012230FC00F801F901FA01FB01FC0366
:101D06000319B02E0310FB0CFA0CF90CF80CF30CAB
:101D1600F20CF10CF00C031C822EFC030319A22E0C
:101D26007408F80775080318750FF907760803187D
:101D3600760FFA0777080318770FFB07862E7408C5
:101D4600F80775080318750FF90776080318760F54
:0C1D5600FA0777080318770FFB07080056
:101D62004001FB017308031D77080319072F72084E
:101D72007606FA007708F3077E30031CC42EF302BE
:101D820003180C2FC72EF302031C112F7208F80040
:101D92007108FC007008FD00F817F6170310F20135
:101DA200F101F0011830A1007D1CE12E7408F0074A
:101DB20075080318750FF10776080318760FF207F6
:101DC200F20CF10CF00CF80CFC0CFD0C0310A10B46
:101DD200D52EF21BF12EF80DF00DF10DF20DF303DD
:101DE2007B1B701C032FF81F032FF00A0319F10A43
:101DF2000319F20A031D032FF20CF10CF00CF30A83
:101E020003190C2FFA1FF2130030152F0130803105
:101E1200B3268831152F0230803113278831152FD0
:0C1E220004308031A32688310000080045
:101E2E0005304301D70080319326883141016E176A
:101E3E004301CE01CF0180304F06F0008030073ACB
:101E4E007002031D2C2FD0304E020318452F803107
:101E5E000D2788317008013A031D372F0020452FBA
:101E6E000B30FC006230FD00FD0B3B2FFC0B3B2FBB
:101E7E0000004301CE0A0319CF0A222F80319F277B
:101E8E00883141016E1F4C2F672F80314D278831CD
:101E9E008031082788314101EE127A30FB00C130C3
:101EAE00FC008130FD00FD0B5A2FFC0B5A2FFB0B53
:101EBE005A2F000000008031322788314E0116164D
:021ECE0008000A
:101ED00080319025883135248031A72388318031A5
:101EE000BC2588314201EB13EB1180310D2788317D
:101EF0007008013A031D7D2F0020562442016B1CFF
:101F0000B12F033041016F020318872FEF0A0C3005
:101F10004301D90041016F084301DA00DB01803140
:101F2000412588310530FB000F30FC00F130FD0009
:101F3000FD0B982FFC0B982FFB0B982F8031BC25A5
:101F400088310D30FB002D30FC00D730FD00FD0B3B
:101F5000A72FFC0BA72FFB0BA72F000000004201AF
:101F60006B104101EE1FE32F6F08013C0318B92FDE
:101F7000EF030C304301D90041016F084301DA003F
:101F8000DB018031412588310530FB000F30FC003A
:101F9000F130FD00FD0BCA2FFC0BCA2FFB0BCA2F23
:101FA0008031BC2588310D30FB002D30FC00D7304E
:101FB000FD00FD0BD92FFC0BD92FFB0BD92F0000F7
:101FC00000004101EE134201EB1FE92FEB1317272D
:101FD000F42F42016B19EF2FEB19EF2FF32F803104
:0A1FE000CA268831F42F752F08007F
:0E1FEA001C304301D50080311F2788310800CC
:102000007408003A031D19287508003A031D1928A1
:102010007608003A031D19287708003A031D19288D
:10202000FF30F000FF30F100FF30F2007F30F300AE
:10203000B5284001FC01F71BFC0AFD01FB01FA0178
:10204000F901F80173087204710470040319AE28D1
:1020500073087706A000A01BFD09F71F3A28F409B2
:10206000F509F609F709F40A0319F50A0319F60A3E
:102070000319F70AF31F4728F009F109F209F309D8
:10208000F00A0319F10A0319F20A0319F30A730893
:102090007704A000A01B6A288831A8219031FC1B7E
:1020A0008728FD1FAE28F009F109F209F309F00AAB
:1020B0000319F10A0319F20A0319F30AF809F909D5
:1020C000FA09FB09F80A0319F90A0319FA0A0319AC
:1020D000FB0AAE28F71F8128F31B7B287308FB003F
:1020E0007208FA007108F9007008F800F301F201B3
:1020F000F101F0015128F301F201F101F001F00AC0
:102100000034F309F209F109F009FC174C28F80A28
:102110000319F90A0319FA0A0319FB0A7408780269
:10212000031D512875087902031D512876087A028B
:10213000031D512877087B02031D5128FB01FA017A
:10214000F901F801F00A0319F10A0319F20A031957
:10215000F30AF31F5128A0012016FF34A0017C1CB4
:0C216000B4288031EF279031003E0800C9
:10216C004301E3010530E4002030E5000130E600D6
:10217C001230E7008031C321903102304301E3007B
:10218C000530E400E030E5000030E6000C30E700FC
:10219C008031C321903102304301E3005430E4001C
:1021AC003330E5000130E6000330E7008031C32115
:0421BC009031080056
:1021C00040304301C4001F30C500C601C701403084
:1021D000F0001F30F1000030F2000030F300420840
:1021E000F4004308F500F601F70188317B269031B1
:1021F00070084301C4007108C5007208C600730866
:10220000C70000307302031D0F2900307202031D46
:102210000F2902307102031D0F29B230700203181A
:1022200012294129B230C4020230C53B0030C63BFE
:10223000C73B0530F000700803192429C736C60CC7
:10224000C50CC40CFF3E1C294408F0004508F100F1
:102250004608F2004708F3000130C4020030C53BD5
:10226000C63BC73B7008710472047304031941290B
:10227000000000000000000000000000000000005E
:042280002429080005
:102284004301C801C9014208CA004308CB00803099
:102294004306F00080307002031D522900304202D0
:1022A400031860290130C8000030C9004208003C0E
:1022B400CA004308031C013ECB01CB024A08CE00EE
:1022C4004B08CF004408D0004508D10088317D2355
:1022D40090310630C6000030C7004708003C031D9B
:1022E40075294608003C03189029460844078600CF
:1022F4004708453D870001304602F0000030473B67
:10230400F1007008440784007108453D8500000809
:1023140081000130C6020030C73B6F2944088600A3
:102324004508870020308100480849040319B6296C
:10233400C601C7014608440784004708453D850097
:102344000008203A031DAA29C60A0319C70A9C29B2
:102354000130C6020030C73B4608440786004708E0
:0A236400453D87002D308100080080
:10236E00420159084301C20042015A084301C30009
:10237E00C401C50142015B084301C60042015C086D
:10238E004301C700C801C9014208F0004308F1002B
:10239E004408F2004508F300883144239031293077
:1023AE00F4005C30F5004130F6008530F7008831DE
:1023BE00B126903170084301CA007108CB00720833
:1023CE00CC007308CD0080304906F0008030450601
:1023DE007002031DFC2944084802031DFC29430812
:1023EE004702031DFC2942084602031C042A6430DE
:1023FE00C200C301C401C501642A46084207F000A9
:10240E004708433DF1004808443DF2004908453D68
:10241E00F3006430F400F501F601F70188317B26F4
:10242E00903143014208F4004308F5004408F600D9
:10243E004508F7004608F4024708F53B4808F63B06
:10244E004908F73B002070084301C2007108C30021
:10245E007208C4007308C5008030F4008030730623
:10246E007402031D442A7208003C031D442A71089D
:10247E00033C031D442A7008E73C03184C2AE7303E
:10248E00C2000330C300C401C50180304506F00010
:10249E0080307002031D5D2A00304402031D5D2A48
:1024AE0000304302031D5D2A643042020318642A81
:1024BE006430C200C301C401C5010030F400C03055
:1024CE00F5003030F6008930F7004A08F0004B086E
:1024DE00F1004C08F2004D08F3008831BF25903111
:1024EE0070084301CA007108CB007208CC00730853
:1024FE00CD007008F4007108F5007208F60073083C
:10250E00F7008831B12690310030F4000030F5002C
:10251E002030F6008130F7008831BF2590317008E9
:10252E004301CA007108CB007208CC007308CD00BD
:10253E000030F4000030F5000030F6007E30F70079
:10254E0088311725903170084301CA007108CB00FD
:10255E007208CC007308CD008831D02390317008FA
:10256E004201DD007108DE0080307106F20080301D
:10257E007202031DC42A323070020318C92AD30115
:10258E00D401D12A430142084201D300430143083A
:06259E004201D400080018
:1025A4004201D901DA01DB01DC014301C801C9019F
:1025B40043084902031DE02A4208480203181B2B62
:1025C4008831C923903170084301C4007108C500E3
:1025D4008831B825903170084301C6007108C700DE
:1025E400450842015A02031DFB2A430144084201E3
:1025F400590203180D2B430144084201D900430139
:1026040045084201DA00430146084201DB00430168
:1026140047084201DC000B30FC006230FD00FD0B7A
:10262400112BFC0B112B00004301C80A0319C90A22
:10263400DA2A40018E1E212B8831D42290310800E1
:1026440043014208233C0318292BF001B52F43080A
:10265400003A031D772C45080319332B8831652371
:102664009031E32B430144087E019000702C430118
:1026740044087E019100702C430144087E019200BD
:10268400702C430144087E019300702C43014408DC
:102694007E019400702C430144087E019500702C47
:1026A400430144087E019600702C430144087E01D6
:1026B4009700702C430144087E019800702C43015C
:1026C40044087E019900702C430144087E019A005D
:1026D400702C430144087E019B00702C4301440884
:1026E4007E019C00702C430144087E019D00702CE7
:1026F400430144087E019E00702C430144087E017E
:102704009F00702C430144087E01A000702C4301FB
:1027140044087E01A100702C430144087E01A200FC
:10272400702C430144087E01A300702C430144082B
:102734007E01A400702C430144087E01A500702C86
:10274400430144087E01A600702C430144087E0125
:10275400A700702C430144087E01A800702C43019B
:1027640044087E01A900702C430144087E01AA009C
:10277400702C430144087E01AB00702C43014408D3
:102784007E01AC00702C430144087E01AD00702C26
:10279400430144087E01AE00702C430144087E01CD
:1027A400AF00702C430144087E01B000702C43013B
:1027B40044087E01B100702C430144087E01B2003C
:1027C400702C43014208003A0319342B4208013AA1
:1027D4000319392B4208023A03193E2B4208033AE3
:1027E4000319432B4208043A0319482B4208053ABB
:1027F40003194D2B4208063A0319522B4208073A93
:102804000319572B4208083A03195C2B4208093A6A
:102814000319612B42080A3A0319662B42080B3A42
:1028240003196B2B42080C3A0319702B42080D3A1A
:102834000319752B42080E3A03197A2B42080F3AF2
:1028440003197F2B4208103A0319842B4208113ACA
:102854000319892B4208123A03198E2B4208133AA2
:102864000319932B4208143A0319982B4208153A7A
:1028740003199D2B4208163A0319A22B4208173A52
:102884000319A72B4208183A0319AC2B4208193A2A
:102894000319B12B42081A3A0319B62B42081B3A02
:1028A4000319BB2B42081C3A0319C02B42081D3ADA
:1028B4000319C52B42081E3A0319CA2B42081F3AB2
:1028C4000319CF2B4208203A0319D42B4208213A8A
:1028D4000319D92B4208223A0319DE2B4301450878
:1028E4000319772C88312E24903143014308013A8F
:1028F400031DEA2D45080319822C88316523903184
:10290400462D430142087D019000E32D4301420816
:102914007D019100E32D430142087D019200E32DE6
:10292400430142087D019300E32D430142087D01E8
:102934009400E32D430142087D019500E32D4301FA
:1029440042087D019600E32D430142087D01970072
:10295400E32D430142087D019C00E32D430142081D
:102964007D019D00E32D430142087D019E00E32D7E
:10297400430142087D01A100E32D430142087D018A
:10298400A200E32D430142087D01A300E32D43018E
:1029940042087D01A400E32D430142087D01A50006
:1029A400E32D430142087D01A900E32D43014208C0
:1029B4007D01AA00E32D430142087D01AB00E32D14
:1029C400430142087D01AC00E32D430142087D012F
:1029D400B100E32D430142087D01B200E32D430120
:1029E40042087D01B300E32D430142087D01B80094
:1029F400E32D430142087D01B900E32D4301420860
:102A04007D01BA00E32D430142087D01BB00E32DA3
:102A1400430142087D01BC00E32D430142087D01CE
:102A2400BD00E32D430142087D01BE00E32D4301B7
:102A340042087D01C300E32D430142087D01C50026
:102A4400E32D430142087D01C600E32D4301420802
:102A54007D01C700E32D430142087D01C800E32D39
:102A6400430142087D01C900E32D430142087D0171
:102A7400CA00E32D430142087D01CB00E32D43014D
:102A840042087D01CC00E32D43014408003A0319B8
:102A9400832C4408013A0319882C4408023A031988
:102AA4008D2C4408033A0319922C4408043A031960
:102AB400972C4408053A03199C2C4408063A031938
:102AC400A12C4408073A0319A62C4408083A031910
:102AD400AB2C4408093A0319B02C44080A3A0319E8
:102AE400B52C44080B3A0319BA2C44080C3A0319C0
:102AF400BF2C44080D3A0319C42C44080E3A031998
:102B0400C92C44080F3A0319CE2C4408103A03196F
:102B1400D32C4408113A0319D82C4408123A031947
:102B2400DD2C4408133A0319E22C4408143A03191F
:102B3400E72C4408153A0319EC2C4408163A0319F7
:102B4400F12C4408173A0319F62C4408183A0319CF
:102B5400FB2C4408193A0319002D44081A3A0319A6
:102B6400052D44081B3A03190A2D44081C3A03197D
:102B74000F2D44081D3A0319142D44081E3A031955
:102B8400192D44081F3A03191E2D4408203A03192D
:102B9400232D4408213A0319282D4408223A031905
:102BA4002D2D4408233A0319322D4408243A0319DD
:102BB400372D4408253A03193C2D4408263A0319B5
:102BC400412D430145080319EA2D88312E24903103
:102BD400262F43014318F12D40011110F32D40011C
:102BE4001114B32F43014318FA2D40019110FC2D09
:102BF40040019114B32F43014318032E40011111D6
:102C0400052E40011115B32F430143180C2E40012A
:102C140091110E2E40019115B32F43014318152E27
:102C240040011112172E40011116B32F430143180E
:102C34001E2E40019112202E40019116B32F430104
:102C44004318272E40011113292E40011117B32FC9
:102C540043014318302E40019113322E4001911745
:102C6400B32F43014318392E400112103B2E40016B
:102C74001214B32F43014318422E40019210442EE4
:102C840040019214B32F430143184B2E40011211FB
:102C94004D2E40011215B32F43014318542E400109
:102CA4009211562E40019215B32F430143185D2E05
:102CB400400112125F2E40011216B32F4301431834
:102CC400662E40019212682E40019216B32F4301E2
:102CD40043186F2E40011213712E40011217B32FA7
:102CE40043014318782E400192137A2E4001921723
:102CF400B32F43014318812E40011310832E40014A
:102D04001314B32F430143188A2E400193108C2EC1
:102D140040019314B32F43014318932E4001131120
:102D2400952E40011315B32F430143189C2E4001E7
:102D340093119E2E40019315B32F43014318A52EE2
:102D440040011312A72E40011316B32F4301431859
:102D5400AE2E40019312B02E40019316B32F4301BF
:102D64004318B72E40011313B92E40011317B32F84
:102D740043014318C02E40019313C22E4001931700
:102D8400B32F43014318C92E40011410CB2E400128
:102D94001414B32F43014318D22E40019410D42E9F
:102DA40040019414B32F43014318DB2E4001141146
:102DB400DD2E40011415B32F43014318E42E4001C6
:102DC4009411E62E40019415B32F43014318ED2EC0
:102DD40040011412EF2E40011416B32F430143187F
:102DE400F62E40019412F82E40019416B32F43019D
:102DF4004318FF2E40011413012F40011417B32F61
:102E040043014318082F400194130A2F40019417DB
:102E1400B32F43014318112F40011510132F400104
:102E24001514B32F430143181A2F400195101C2F7A
:102E340040019514B32F43014318232F400115116A
:102E4400252F40011515B32F43014208003A0319F9
:102E5400EB2D4208013A0319F42D4208023A0319F2
:102E6400FD2D4208033A0319062E4208043A0319B9
:102E74000F2E4208053A0319182E4208063A031980
:102E8400212E4208073A03192A2E4208083A031948
:102E9400332E4208093A03193C2E42080A3A031910
:102EA400452E42080B3A03194E2E42080C3A0319D8
:102EB400572E42080D3A0319602E42080E3A0319A0
:102EC400692E42080F3A0319722E4208103A031968
:102ED4007B2E4208113A0319842E4208123A031930
:102EE4008D2E4208133A0319962E4208143A0319F8
:102EF4009F2E4208153A0319A82E4208163A0319C0
:102F0400B12E4208173A0319BA2E4208183A031987
:102F1400C32E4208193A0319CC2E42081A3A03194F
:102F2400D52E42081B3A0319DE2E42081C3A031917
:102F3400E72E42081D3A0319F02E42081E3A0319DF
:102F4400F92E42081F3A0319022F4208203A0319A6
:102F54000B2F4208213A0319142F4208223A03196D
:082F64001D2FFF30F0000800F2
:102F6C0002304301D900C030DA00DB018031412549
:102F7C00903103304301D900A830DA00DB018031F5
:102F8C004125903104304301D9000230DA00003081
:102F9C00DB0080314125903105304301D900A03050
:102FAC00DA00DB0180314125903102304301CE0043
:102FBC0088316C23903170084201EF0003304301DB
:102FCC00CE0088316C23903170084201EE00043041
:102FDC004301CE0088316C23903170084201ED0022
:102FEC0005304301CE0088316C23903170084201CA
:042FFC00EC000800DD
:10300000003043013306031D072800303206031D3C
:1030100017280230D9003C30DA00B130DB00003034
:10302000DC000430DD008031042498313E28430167
:103030003208C2003308C300A730C4000130C50005
:103040009031422198312A084201C3002E30C40039
:1030500043012B084201C50043012C084201C60070
:1030600002304301D9003C30DA004330DB0001304C
:0E307000DC000430DD008031042498310800BB
:10307E0064304301B5009031B62098314201EB1413
:10308E000D304301CE0088316C23983170185228D0
:10309E00400199125428400199164301D90101307B
:1030AE00DA000030DB008031412598314101EE120B
:1030BE008031E125983188315624983141016E1EB8
:1030CE006C289031B627983179284101EE1D702871
:1030DE00792842016B1877284101EE1B7728792851
:1030EE004101EE1641016E17400118177E01451081
:1030FE004301B201B30180303306F0008030073A4D
:10310E007002031D8C28D03032020318A62880319D
:10311E000D2798317008013A031D98288831002038
:10312E0098310B30FC006230FD00FD0B9C28FC0B2F
:10313E009C2800004301B20A0319B30A8228320800
:10314E00D13CC2003308031C013E073CC300903142
:10315E00E02098318031E125983180319F279831D8
:10316E0041016E1FBB28F12880314D279831410156
:10317E00EE1EC528883168279831C8288831172750
:10318E00983140010D19CD280314CE280310031CCD
:10319E00D2280000C8284301B401350834020318B0
:1031AE00EE2840010D19DD280314DE280310031C40
:1031BE00E2284301B4016830FC00E430FD00430115
:1031CE00FD0BE628FC0BE6280000B40AD42880315B
:0631DE00E1259831080014
:1031E400003043013302031DF9280A303202031868
:1031F4000829D9013C30DA00A030DB000030DC00C3
:103204000330DD0080310424983154290030430117
:103214003302031D0F2964303202031826293208B1
:10322400C2003308C300A730C4000130C500903188
:10323400422198312B084201C3002E30C4004301BF
:103244002C084201C5004729053043013207F0002C
:103254000030333DF1007008B2007108B30070080B
:10326400C2007108C300A730C4000130C50090310A
:103274004221983120304201C30043012A0842010F
:10328400C40043012B084201C5004301D9013C306D
:10329400DA004330DB000130DC000330DD00803134
:0632A4000424983108002B
:1032AA0043013208C2003308C3009031D222983158
:0832BA009031B72198310800A2
:1032C20042019E1690309D004E018F1E6C294201D4
:0832D2001908F000652908004D
:1032DA00430132084201CB00430133084201CC00CA
:1032EA00430134084201CD00430135084201CE00B2
:1032FA00430136084201E700430137084201E8006A
:10330A00430138084201E900430139084201EA0051
:10331A0043013A084201E30043013B084201E40049
:10332A0043013C084201E50043013D084201E60031
:10333A0043013E084201D50043013F084201D6003D
:10334A00430140084201D700430141084201D80025
:02335A00080069
:10335C0043013208C2003308C3003408C400C5015D
:08336C00903122239831080082
:103374004301CE0188316C23983100307106031D5E
:10338400C529FF307006031DD0294301D90101303E
:10339400DA000030DB008031412598314301CE0151
:1033A40088316C2398317018DA294201EB10DC293A
:1033B4004201EB1402304301CE0088316C23983172
:1033C40000307106031DE829FF307006031D0F2A23
:1033D40002304301D900C030DA00DB0180314125DD
:1033E400983103304301D900A830DA00DB01803181
:1033F4004125983104304301D9000230DA0000300D
:10340400DB0080314125983105304301D900A030DB
:10341400DA00DB0180314125983102304301CE00CE
:1034240088316C23983170084201EF000330430166
:10343400CE0088316C23983170084201EE000430CC
:103444004301CE0088316C23983170084201ED00AD
:1034540005304301CE0088316C2398317008420155
:10346400EC000C304301CE0088316C2398310030DD
:103474007106031D3F2AFF307006031D4B2A0C30D2
:103484004301D9000130DA000030DB0080314125EE
:1034940098310C304301CE0088316C239831700888
:1034A4004101EF000D304301CE0088316C23983187
:1034B40000307106031D602AFF307006031D6C2A5C
:1034C4000D304301D9000130DA000030DB008031D7
:1034D400412598310D304301CE0088316C23983159
:1034E4007018772A40019912792A400199160E30F2
:1034F4004301CE0088316C23983100307106031DDE
:10350400852AFF307006031D8F2A0E304301D9002F
:10351400DA01DB018031412598310E304301CE00C0
:0E35240088316C23983170084101ED000800D9
:1035320040016D084301B20040016E084301B3002F
:10354200552141016D08023A031DDF2A42015E083E
:1035520041014C06031DB02A4B0842015D060319C6
:10356200C32A42015D084101CB0042015E084101CC
:10357200CC0042015D084301B20042015E084301F2
:10358200B300F2204201540841014E06031DCC2A29
:103592004D08420153060319DF2A42015308410133
:1035A200CD00420154084101CE00420153084301BB
:1035B200B200420154084301B300002080304201AE
:1035C2005E06F00080307002031DE92A96305D022B
:1035D200031C482B8030013AF00080305406700200
:1035E200031DF52A53082C3C0318482B80319025E3
:1035F200983101304301D9000A30DA00B630DB00DD
:103602000030DC000830DD008031042498314101B3
:10361200EE142930FB009630FC007F30FD00FD0BDC
:10362200102BFC0B102BFB0B102BEE102C3043013C
:10363200B2000130B300552180305E06F0008030C8
:103642007002031D262B96305D02031C352B803041
:103652005406F0008030013A7002031D322B2C30E8
:103662005302031C352B362B372B082B8031322784
:1036720098310D30FB002D30FC00D730FD00FD0BE2
:10368200402BFC0B402BFB0B402B000000000800E2
:1036920042016B1B4D2BDB2B6B13EB1F942B400159
:1036A200991E662B99128031902598310130430181
:1036B200D9001E30DA00BF30DB000030DC000630FB
:1036C200DD00803104249831782B991680319025C1
:1036D200983101304301D9002A30DA00C630DB00CC
:1036E2000030DC000430DD008031042498310D30DC
:1036F2004301D90000304001991A01304301DA0038
:10370200DB018031412598312930FB009630FC00E5
:103712007F30FD00FD0B8B2BFC0B8B2BFB0B8B2BC4
:1037220080313227983142016B1EA42B4101ED01F9
:103732000E304301D900DA01DB0180314125983195
:103742008031322798314201EB1EB62B0130410104
:10375200ED000E304301D9000130DA00DB01803187
:10376200412598318031322798314101EE1DC72B16
:103772000230ED000E304301D9000230DA00DB01E5
:1037820080314125983180313227983141016E1EB6
:10379200D82B0330ED000E304301D9000330DA009C
:1037A200DB018031412598318031322798318031D7
:0637B200E125983108003A
:1037B8008031E12598314101EE1042016B13080078
:1037C80040016A08F000F101F035F10D6030700732
:1037D8004301B0000030713DB1008831F5279831C0
:1037E8007008E83CF0007108031C013E033CF1003E
:1037F800430130088600310887007008810071088D
:10380800413181004001EB01EC014301AF0105307A
:103818002F020318232C2F08F000F101F035F10DC9
:103828006030700784000030713D85000008400159
:10383800EB0701310008EC3D4301AF0A0B2C0530C2
:10384800F4000030F50040016B08F0006C08F1004E
:103858008831F52098317008EB007108EC00EA0A0D
:103868006A08053A031D392CEA0102306C02031D6F
:103878003F2C4E306B02031C482C5F08033A031D93
:10388800482C0530DF00562C02306C02031D4E2CEC
:1038980026306B02031C562C5F08003A031D562C79
:1038A8000330DF006C08023C031D5C2C6B08263CCF
:1038B800031C652C5F08053A031D652C0330DF00E7
:1038C800722C02306C02031D6B2C08306B0203183B
:1038D800722C5F08033A031D722CDF016C08023C4E
:1038E800031D782C6B08623C0318B72C4101EE14B9
:1038F8004001181280319025983101304301D900D8
:103908001430DA00A830DB000030DC000830DD00BD
:103918008031042498318831F52798317008E83CC3
:10392800F2007108031C013E033CF3008030023AA8
:10393800F000803073067002031DA42C7208583CF6
:103948000318B32C2930FB009630FC007F30FD00B3
:10395800FD0BAC2CFC0BAC2CFB0BAC2C8F2CEE1009
:0839680080313227983108007C
:10397000C0304301B2000630B3000030B400003064
:10398000B5009330B6000630B700D730B80001302C
:10399000B9000D30BA000730BB000030BC00003069
:1039A000BD009D30BE000630BF000030C0000030BA
:0839B000C1006D216121080036
:1039B8004301AF010A302F020318052D8031DB20A7
:1039C800983141014F084401A0008031A42098316A
:1039D8007008003A031DF12C052D803138219831EB
:1039E8000D30FB002D30FC00D730FD00FD0BFA2C0C
:1039F800FC0BFA2CFB0BFA2C000000004301AF0A69
:103A0800DE2C4401A0018031A4209831AE3044015D
:103A1800A0008031A4209831D5304401A000803125
:103A2800A420983180304401A0008031A42098312E
:103A3800A8304401A0008031A42098313F304401CF
:103A4800A0008031A4209831D3304401A0008031F7
:103A5800A4209831410151084401A0008031A420DC
:103A6800983140304401A0008031A42098318D3035
:103A78004401A0008031A420983114304401A000F2
:103A88008031A420983181304401A0008031A420E5
:103A98009831FF304401A0008031A4209831D930FA
:103AA8004401A0008031A4209831F1304401A000E5
:103AB8008031A420983120304401A0008031A42016
:103AC800983102304401A0008031A420983121307F
:103AD8004401A0008031A42098314401A001803124
:103AE800A42098317F304401A0008031A42098316F
:103AF8002E304401A0008031A420983141015208A1
:103B08000319932DA0304401A0008031A4209831DE
:103B1800C0304401A0008031A42098319F2DA130ED
:103B28004401A0008031A4209831C8304401A0008D
:103B38008031A4209831DA304401A0008031A420DB
:103B4800983102304401A0008031A4209831DB3044
:103B58004401A0008031A420983140304401A000E5
:103B68008031A4209831A4304401A0008031A420E1
:103B78009831A6304401A0008031A42098318031CA
:103B880038219831803190259831AF304301E300D6
:083B980080317421983108000E
:103BA00012001E00F003031DD02DF103031DD02DC4
:023BB00008000B
:103BB20040016B084301AF0040016C084301B000B3
:103BC200013040016C02031DE82D90306B02031896
:103BD200EF2D90304301AF000130B00043013008B7
:103BE200023C031DF62D2F08583C0318FC2D5830BB
:103BF200AF000230B00090302F02F3000130303BB2
:103C0200F4007308F0007408F100F136F00C70084B
:103C1200AF007108B0007008D9008031932298314A
:103C22005F084301E300A730E4000130E500803182
:103C32008521983129084201C30003304301E30082
:103C42004C30E4004330E5000130E6000130E7008B
:083C5200803140229831080086
:103C5A001F304201CF000730D000D530D1000130EB
:103C6A00D20041019301940195019601EC309A0525
:103C7A00133043012F05F000700841019A04C03047
:103C8A0043012F05F0000319602EC0302F05F20002
:103C9A000630F1007208F00071080319572EF03649
:103CAA00FF3E522E700852018C008C170C1B5F2E9F
:103CBA0000005B2E632E5201FC308C054101131665
:063CCA001315931708001A
:103CD0004201EB1C6F2E8031CA269831702E3F2096
:023CE0000800DA
:103CE2007E01B801C301CE01E401D9015916591769
:103CF200D917C315431653019013941340018C0135
:103D02008D018E018F019001960197019801990111
:103D12009A0191013E30920020309300D0309400FD
:103D220095017E014415C4163A15BA154514883119
:103D32006523983109304301B2000130B3002530C8
:103D4200B400AE2108304301B200B3011030B40018
:103D5200AE2188312E24983140019F121F179F13E4
:103D62001E16C0309C00E0309D004E018C124001B6
:103D72009E174E0196168B177E01D316D416053068
:103D8200FB000F30FC00F130FD00FD0BC62EFC0BDA
:083D9200C62EFB0BC62E080033
:103D9A00A031FE23983171268031FB2798314301E7
:103DAA00AF012D2642019F1504309B000D309C0067
:103DBA001E15B824DC23BA21DC244201EB1CE62EB2
:103DCA003F2041015408DC005508DD005608DE009A
:103DDA005708DF0054084201DF004101550842013B
:103DEA00E000410156084201E10041015708420141
:103DFA00E20041015408D8005508D9005608DA00F3
:103E0A005708DB004201EB1C5B2F41015F08570298
:103E1A00031D192F5E085602031D192F5D0855024E
:103E2A00031D192F5C085402031C272F2C30DC07B2
:103E3A000130DD3D0030DE3DDF3D883156249831CA
:103E4A00492399224201620841015702031D3D2F6D
:103E5A004201610841015602031D3D2F42016008DB
:103E6A0041015502031D3D2F42015F0841015402E1
:103E7A00031C5A2FE42341016D08033A031D462F00
:103E8A00D925E830410154074201DF0003304101DE
:103E9A00553D4201E00000304101563D4201E1003A
:103EAA0000304101573D4201E200602F4201EB1D03
:103EBA00602FEB113F2042016B1D642F6826072FEC
:023ECA00652F62
:1047FC00673084009F3085004730F0000130F100B5
:10480C0026308600003087009831D025A031AE309C
:10481C0084009F3085002B30F0000130F100A03077
:10482C008600003087009831D025A031FD308400FF
:10483C00873085000230F0000130F1006D308600C9
:10484C00003087009831D025A031FC3084008F30A7
:10485C0085000430F0000130F100CB3086000030D0
:10486C0087009831D025A03103308400803085003A
:10487C000130F0000130F1006F308600003087000D
:10488C009831D025A031E0308400A33085001E3053
:10489C00F0000130F100CF308600003087009831F5
:1048AC00D025A031D93084009F3085002330F00012
:1048BC000130F10020308600013087009831D0257E
:0448CC00A03108000F
:020006000034C4
:040FFA006434003427
:041FF8000F34273447
:041FFC000034003479
:103ECE005334573452342034203430342E3430347A
:043EDE003034003448
:043EE2003D34003437
:043EE6003D34003433
:103EEA00543445344D3450344534523441345434C6
:083EFA00553452344534003404
:083F0200463441344E34003412
:103F0A005034573452342034203430342E34303440
:043F1A0057340034E4
:023F1E0000346D
:0A3F200053344C344F345434003451
:103F2A0046345034473441342034453452345234C0
:063F3A004F345234003444
:023F400000344B
:103F420000340034003400340034003400340034CF
:043F52000034003403
:023F5600003435
:043F580000340034FD
:083F5C0030342E3430340034FF
:083F640046342F3457340034B9
:103F6C004F34563445345234483445344134543447
:023F7C0000340F
:0A3F7E0030342E3430343034003477
:103F8800483449344734483420345334573452344D
:023F98000034F3
:0E3F9A0055344E344D345534543445340034CF
:0A3FA8004D345534543445340034D0
:103FB2002034443445345334493447344E34453440
:103FC200443420344234593420344E343734443467
:063FD200443443340034C6
:083FD80031342E34343400347E
:103FE00042344F344F3454344C344F3441344434DD
:083FF000453452342034003442
:1040000000348034E034F034F834F834FC34FC34D8
:104010007C347C34FC34FC34F834F834F034E03450
:1040200080340034003400340034FC34FC34FC347C
:10403000FC34FC34FC34FC347C347C34FC34FC3400
:10404000FC34F834F834F034C034003400340C3428
:10405000FC34FC34FC34FC34FC34FC3400340034D8
:104060000034FC34FC34FC34FC34FC34FC340C34BC
:1040700000340034C034F034F834F834FC34FC3408
:10408000FC347C347C34FC34FC34FC34F834F834B8
:10409000F034C034003400340034C034F034F83428
:1040A000F834FC34FC34FC347C347C34FC34FC3494
:1040B000FC34F834F834F034C034003400340034C4
:1040C0000034FC34FC34FC34FC34FC34FC34FC346C
:1040D000FC34FC34FC34FC34003400340C34FC3448
:1040E000FC34FC34FC34FC34FC3400340034003444
:1040F000FC34FC34FC34FC34FC34FC340C3400342C
:104100000034FF34FF34FF34FF34FF34FF34FF3416
:1041100000340034FF34FF34FF34FF34FF34FF3405
:10412000FF340034003400340034FF34FF34FF34F3
:10413000FF34FF34FF34FF3400340034FF34FF34E5
:10414000FF34FF34FF34FF34FF34003400340034D4
:10415000003407347F34FF34FF34FF34FE34C0347E
:10416000FE34FF34FF34FF347F340734003400342E
:10417000003400341F347F34FF34FF34FF34FF3405
:10418000FF34F834F834F734E734C734C7348734AD
:10419000073407340034003400341F347F34FF34D4
:1041A000FF34FF34FF34FF34F834F834F734E734A5
:1041B000C734C7348734073407340034003400343C
:1041C0000034FF34FF34FF34FF34FF34FF34FF3456
:1041D000E034E034E034E0340034003400340034BF
:1041E00007347F34FF34FF34FF34FE34C034FE34F0
:1041F000FF34FF34FF347F3407340034003400349C
:104200000034FF34FF34FF34FF34FF34FF34FF3415
:1042100000340034FF34FF34FF34FF34FF34FF3404
:10422000FF340034003400340034FF34FF34FF34F2
:10423000FF34FF34FF34FF3400340034FF34FF34E4
:10424000FF34FF34FF34FF34FF34003400340034D3
:104250000034003400340734FF34FF34FF34FF34BB
:10426000FF34FF34FF3407340034003400340034AA
:1042700000340034E034E034E034E134E134E33459
:10428000E7340F340F341F34FF34FF34FF34FF346E
:10429000FF34FE34F83400340034E034E034E034E9
:1042A000E134E134E334E7340F340F341F34FF34A6
:1042B000FF34FF34FF34FF34FE34F834003400346C
:1042C0000034FF34FF34FF34FF34FF34FF34FF3455
:1042D0000734073407340734003400340034003422
:1042E000003400340734FF34FF34FF34FF34FF342C
:1042F000FF34FF3407340034003400340034003419
:10430000003403340F341F343F343F347F347F3460
:104310007C347C347F347F343F343F341F340F345B
:10432000033400340034003400347F347F347F346D
:104330007F347F347F347F347C347C347F347F34EB
:104340007F347F343F343F340F3400340034003442
:1043500000340034003400347F347F347F347F34C1
:104360007F347F347F340034003400340034003430
:104370000034003407341F341F343F343F347F345B
:104380007F347C347C347C347F347F343F343F341E
:104390003F341F3407340034003407341F341F34D3
:1043A0003F343F347F347F347C347C347C347F34FE
:1043B0007F343F343F343F341F34073400340034FB
:1043C00000347F347F347F347F347F347F347F34D4
:1043D0007E347E347E347E347E34003400340034C7
:1043E0000034003400347F347F347F347F347F34B2
:1043F0007F347F340034003400340034003400341F
:1044000000340034003400340034003400345F34AD
:1044100000340034003407340034073400341434DA
:104420007F3414347F34143424342A347F342A34CF
:104430001234233413340834643462343634493447
:1044400055342234503400340534033400340034FD
:1044500000341C34223441340034003441342234DA
:104460001C34003408342A341C342A340834083408
:1044700008343E34083408340034503430340034C6
:104480000034083408340834083408340034303434
:10449000303400340034203410340834043402340E
:1044A0003E345134493445343E34003442347F3450
:1044B0004034003442346134513449344634213478
:1044C000413445344B3431341834143412347F348D
:1044D0001034273445344534453439343C344A3477
:1044E00049344934303401347134093405340334E7
:1044F000363449344934493436340634493449343D
:1045000029341E3400343634363400340034003458
:104510005634363400340034003408341434223431
:1045200041341434143414341434143441342234E3
:10453000143408340034023401345134093406345C
:1045400032344934793441343E347E3411341134B8
:1045500011347E347F3449344934493436343E345E
:1045600041344134413422347F34413441342234A3
:104570001C347F3449344934493441347F3409345C
:104580000934013401343E3441344134513432343D
:104590007F340834083408347F34003441347F34A5
:1045A000413400342034403441343F3401347F34CA
:1045B00008341434223441347F344034403440349D
:1045C00040347F340234043402347F347F34043482
:1045D000083410347F343E344134413441343E3465
:1045E0007F3409340934093406343E3441345134BB
:1045F00021345E347F340934193429344634463446
:104600004934493449343134013401347F3401347C
:1046100001343F344034403440343F341F3420347C
:10462000403420341F347F342034183420347F3415
:104630006334143408341434633403340434783465
:104640000434033461345134493445344334003440
:1046500000347F344134413402340434083410349B
:104660002034413441347F34003400340434023483
:104670000134023404344034403440344034403453
:1046800000340134023404340034203454345434BB
:10469000543478347F3448344434443438343834EF
:1046A0004434443444342034383444344434483476
:1046B0007F343834543454345434183408347E3409
:1046C00009340134023408341434543454343C343E
:1046D0007F340834043404347834003444347D3472
:1046E000403400342034403444343D340034003409
:1046F0007F34103428344434003441347F3440341F
:1047000000347C3404341834043478347C34083471
:10471000043404347834383444344434443438343D
:104720007C341434143414340834083414341434F9
:1047300018347C347C340834043404340834483469
:10474000543454345434203404343F3444344034E6
:1047500020343C344034403420347C341C34203405
:10476000403420341C343C344034303440343C3405
:10477000443428341034283444340C345034503405
:1047800050343C344434643454344C344434003471
:104790000834363441340034003400347F3400347B
:1047A00000340034413436340834003408340834DA
:1047B0002A341C34083408341C342A3408340834AD
:0447C0007834003415
:0247C4000034BF
:0247C6000134BC
:0247C8000034BB
:0847CA00003400340034003417
:0847D20000340034003400340F
:0847DA00003400340034003407
:1047E200203446345734203456344534523453340A
:0A47F20049344F344E3420340034B3
:020000040001F9
:0A000E000421233E1F3F03300300CE
:00000001FF
